S02B0000433A5C55736572735C4D617263656C4D616E6E5C446F63756D656E74735C4769745C707373735C732D
S11300000000002041020000850500008705000073
S1130010890500008B0500008D050000000000002C
S11300200000000000000000000000008F05000038
S113003091050000000000009305000095050000F4
S1130040970500009705000097050000970500003C
S1130050970500009705000097050000970500002C
S1130060970500009705000097050000970500001C
S1130070970500009705000097050000970500000C
S113008097050000970500009705000097050000FC
S113009097050000970500009705000097050000EC
S11300A097050000970500009705000097050000DC
S11300B097050000970500009705000097050000CC
S11300C097050000970500009705000097050000BC
S11300D097050000970500009705000097050000AC
S11300E0970500009705000097050000970500009C
S11300F0970500009705000097050000970500008C
S1130100970500009705000097050000970500007B
S1130110970500009705000097050000970500006B
S1130120970500009705000097050000970500005B
S11301307D090000F50900009705000097050000FF
S11301409705000097050000B90A0000350B000070
S1130150970500009705000097050000970500002B
S1130160970500009705000097050000970500001B
S1130170970500009705000097050000970500000B
S113018097050000970500009705000097050000FB
S113019097050000970500009705000097050000EB
S11301A097050000970500009705000097050000DB
S11301B097050000970500009705000097050000CB
S11301C097050000970500009705000097050000BB
S11301D097050000970500009705000097050000AB
S11301E0970500009705000097050000970500009B
S11301F0970500009705000097050000970500008B
S1130200970500009705000097050000970500007A
S1130210970500009705000097050000970500006A
S1130220970500009705000097050000970500005A
S1130230970500009705000097050000970500004A
S11302400F481049104A0023934205D20C680460F9
S1130250043304310430F7E70C480D4A002300242A
S1130260934203D2046004330430F9E70948016877
S1130270094A1143016009488047094800470000C2
S11302800000FD1FBC9A0000FC080000FC08FD1FD4
S11302904000000088ED00E00000F000C903000009
S11302A0F504000080B483B000AF424B1B685B09C7
S11302B003F00703052B30D801A252F823F000BF46
S11302C0D9020000DF020000E50200001B03000069
S11302D00D03000013030000374B7B6020E0364B16
S11302E07B601DE0334BDB6B03F03F030133324A89
S11302F002FB03F33B602F4B9B6B1B0903F00F03C3
S113030001333A68B2FBF3F37B6009E02B4B7B606B
S113031006E04FF400437B6002E000237B6000BFF3
S1130320244B1B6903F00703062B39D801A252F8AA
S113033023F000BF510300005903000063030000D1
S1130340730300007D0300008D0300009703000089
S11303501B4A7B68136027E07B685B08184A1360BC
S113036022E07B68174AA2FB03235B08144A13604C
S11303701AE07B689B08124A136015E07B68114AF7
S1130380A2FB03239B080E4A13600DE07B68DB0885
S11303900B4A136008E07B681B09094A136003E0F9
S11303A0074B00221A6000BF0C37BD465DF8047B82
S11303B0704700BF0000014000093D00A086010015
S11303C00000FD1FABAAAAAA80B400AF414B424A69
S11303D0C3F8002C3F4B414AC3F8002C3D4B00228C
S11303E09A604FF0804301225A6100BF4FF080436E
S11303F05B6903F00203002BF8D0394B00221A6129
S1130400374B01225A61364B80229A61344B812248
S1130410DA61334B83221A62314B00229A62304BE9
S11304205C221A632E4A2E4B1B6843F002031360AE
S113043000BF2B4B5B6803F00203002BF9D0284B61
S113044000225A63264B01229A63254B3122DA6338
S1130450234A234B1B6843F01003136000BF204B57
S11304605B6803F01003002BF9D01D4A1C4B1B687A
S113047043F0400313601A4B1B6803F0E003194A6E
S11304801360174B5B6803F0E002164B1B689A423B
S1130490F1D14FF08043D3F80021134B1340124A9B
S11304A0934212D0114B124ADA60104A4FF0804343
S11304B0D3F800311B0C93600C4A4FF08043D3F8FF
S11304C000315360094B0022DA60BD465DF8047BBD
S11304D0704700BF0010014051E5CC1AAE1A33E555
S11304E000000140FC08FD1FFF031F0000E0024064
S11304F054E5CC1A80B582B000AF00237B6003F0D2
S1130500F5FC00F0B9F9194803F0BCFD4FF4FA709A
S113051000F042F8164800F09FF800F0D9F84FF4C4
S11305207A7000F039F8134800F096F800F0D0F82B
S11305304FF47A7000F030F80F4800F08DF800F0B6
S1130540C7F84FF47A7000F027F80C4800F084F8EC
S113055000F0BEF84FF47A7000F01EF8084803F07B
S113056091FD42F2107000F017F8FAE7709800005D
S11305709098000094980000A4980000B898000097
S1130580C4980000FEE7FEE7FEE7FEE7FEE7FEE7AD
S1130590FEE7FEE7FEE7FEE780B582B000AF7860D5
S11305A07B684FF47A7202FB03F3184600F004F8F8
S11305B00837BD4680BD00BF80B582B000AF78600B
S11305C0786800F005F800F02BF80837BD4680BDC8
S11305D080B485B000AF78600F4B00229A810E4B37
S11305E041F2B4029A810C4B00225A740A4B002245
S11305F01A747B68322202FB03F3FB60074AFB6830
S11306001B0C9BB21380044BFA6892B21A80143705
S1130610BD465DF8047B70470050024040500240E4
S113062080B400AF0A4A0A4B9B899BB243F0030390
S11306309BB2938100BF074B1B78DBB2002BFAD02F
S1130640044B00221A70BD465DF8047B704700BF5E
S11306500050024000024A4280B582B000AF786088
S113066007E07B681B78184600F0E8F87B680133E4
S11306707B607B681B78002BF3D10D2000F0DEF843
S11306800A2000F0DBF8002318460837BD4680BD79
S113069080B584B000AF786078680B4903F004FD3E
S11306A00346002B06D07868084903F0FDFC034696
S11306B0002B01D1012300E00023FB60FB681846F6
S11306C01037BD4680BD00BFD0980000D898000008
S11306D080B5ADF5036D00AF554803F0D3FC00239E
S11306E0C7F824380AE03B1DD7F82428002143F832
S11306F02210D7F824380133C7F82438D7F824381F
S1130700132BF0DD0023C7F82C3864E00023C7F86E
S1130710283829E000BF4748032100F0E5FF0346DD
S1130720012BF8D1434801F08DF80346D8B207F104
S11307305402D7F82C38642101FB03F1D7F8283888
S11307400B44134402461A703B1DD7F82C2853F867
S11307502230591C3B1DD7F82C2843F82210D7F817
S113076028380133C7F82838D7F82838632B0EDC2B
S1130770D7F82838013B07F15402D7F82C18642025
S113078000FB01F10B4413441B780A2BC2D13B1D1F
S1130790D7F82C2853F8223007F15402D7F82C1834
S11307A0642000FB01F10B44134400221A7007F18A
S11307B05402D7F82C38642101FB03F31344184680
S11307C0FFF766FF0346002B00D008E0D7F82C386B
S11307D00133C7F82C38D7F82C38132B96DD0023B7
S11307E0C7F8243812E007F15402D7F824386421FA
S11307F001FB03F313441048D7F824181A4603F0F6
S1130800FBFBD7F824380133C7F824383B1DD7F84D
S1130810242853F82230002B03D0D7F82438132B84
S1130820E1DD00BF184607F50367BD4680BD00BF84
S1130830E098000000830340F498000080B582B083
S113084000AF0346FB7100BF0748042100F04CFFD2
S11308500346012BF8D1FB799BB20348194600F0FB
S1130860DBFF0837BD4680BD0083034080B500AF81
S1130870FFF72EFF80BD00BF80B58AB000AF07F13F
S113088008031846202100F057F83B1D18460321A1
S113089000F052F800233B724FF4E133FB60002375
S11308A0BB7400233B7400237B740023FB7400237C
S11308B03B7500237B750023BB75012387F8243027
S11308C000233B7100237B718023BB713B1DBB6103
S11308D007F108031448194600F06CFC134A134B43
S11308E0D3F81C3623F0407343F00073C2F81C366F
S11308F00F4B01221A700C48002100F0A9FE0B4A8C
S11309000A4BD3F81C3623F4400343F40003C2F823
S11309101C36084B01221A700348012100F098FE8E
S11309202837BD4680BD00BF0083034000F0064069
S11309300402DE420002DE4280B483B000AF78607D
S1130940396004E07B685A1C7A6000221A703B68A4
S11309505A1E3A60002BF5D10C37BD465DF8047B76
S1130960704700BF80B400AFBD465DF8047B70479C
S113097080B483B000AF7860FEE700BF80B582B07A
S113098000AF184BD3F8F4327B607B6803F00103AB
S1130990002B24D0144B1B7C013B032B1ED801A23B
S11309A052F823F0B5090000BF090000C90900008E
S11309B0D30900000D480E4900F02CFB0FE00B4852
S11309C00B4900F0E3FF0AE00848094902F014F873
S11309D005E00648064902F0B9FD00E000BF08370B
S11309E0BD4680BD001003400400FD1F008003408D
S11309F01400FD1F80B582B000AF2B4BD3F8F83242
S1130A007B607B6803F00103002B24D0274B1B7C05
S1130A10013B032B1ED801A252F823F02D0A00003B
S1130A20370A0000410A00004B0A0000204821490F
S1130A3000F006FB0FE01E481E4900F0BDFF0AE06F
S1130A401B481C4901F0EEFF05E01948194902F062
S1130A5093FD00E000BF7B6803F00203002B20D06D
S1130A60124B1B7C013B032B1AD801A252F823F032
S1130A70810A0000830A00008D0A0000970A000022
S1130A80FEE70B480B4900F0EDFF0AE0084809496E
S1130A9002F004F805E00648064902F0AFFD00E064
S1130AA000BF0837BD4680BD001003400400FD1F91
S1130AB0008003401400FD1F80B582B000AF194BC5
S1130AC0D3F80C337B607B6803F00103002B26D042
S1130AD0154B93F83C30013B032B1FD801A252F86D
S1130AE023F000BFF50A0000FF0A0000090B000014
S1130AF0130B00000D480E4900F08CFA0FE00B4870
S1130B000B4900F043FF0AE00848094901F074FF6B
S1130B1005E00648064902F019FD00E000BF083769
S1130B20BD4680BD001003400400FD1F0083034048
S1130B304000FD1F80B582B000AF2D4BD3F81033B9
S1130B407B607B6803F00103002B26D0294B93F8CC
S1130B503C30013B032B1FD801A252F823F000BF05
S1130B60710B00007B0B0000850B00008F0B000055
S1130B702148224900F064FA0FE01F481F4900F0A1
S1130B801BFF0AE01C481D4901F04CFF05E01A4810
S1130B901A4902F0F1FC00E000BF7B6803F0020395
S1130BA0002B22D0134B93F83C30013B032B1BD872
S1130BB001A252F823F000BFC90B0000CB0B0000C8
S1130BC0D50B0000DF0B0000FEE70B480B4900F0DB
S1130BD049FF0AE00848094901F060FF05E00648BA
S1130BE0064902F00BFD00E000BF0837BD4680BD9A
S1130BF0001003400400FD1F008303404000FD1F5C
S1130C0080B483B000AF0346FB71084997F90730FD
S1130C105B09FA7902F01F02012000FA02F241F89E
S1130C2023200C37BD465DF8047B704700E100E0EB
S1130C3080B483B000AF0346FB71094997F90730CC
S1130C405B09FA7902F01F02012000FA02F2203354
S1130C5041F823200C37BD465DF8047B704700BF84
S1130C6000E100E080B483B000AF0346FB710949A2
S1130C7097F907305B09FA7902F01F02012000FAA4
S1130C8002F2603341F823200C37BD465DF8047B43
S1130C90704700BF00E100E080B483B000AF0346BA
S1130CA03960FB7197F90730002B0BDA0D49FB799A
S1130CB003F00F03043B3A68D2B21201D2B20B44E0
S1130CC01A7609E0084997F907303A68D2B2120156
S1130CD0D2B20B4483F800230C37BD465DF8047B85
S1130CE0704700BF00ED00E000E100E090B58DB07A
S1130CF000AF03460A46FB711346BB71734B07F101
S1130D001C04186859689A68DB680FC4704A07F1B4
S1130D1014031068516803C36D4A07F10C0310688B
S1130D20516803C3BB79002B66D1FB791E33DBB258
S1130D305B00DBB287F82F30FB79072B0ED8FB79E9
S1130D405B0007F13002134413F8143C1A4697F978
S1130D502F3018461146FFF79FFF42E0FB79072B1F
S1130D601DD9FB790B2B1AD8FB79083BDBB25B004E
S1130D70DBB26733DBB287F82F30FB7903F1004332
S1130D80083B5B0007F13002134413F81C3C1A467D
S1130D9097F92F3018461146FFF77EFF21E0FB79C3
S1130DA00B2B40F29080FB790F2B00F28C80FB79A7
S1130DB00C3BDBB23C33DBB25B00DBB287F82F3099
S1130DC0FB7903F100430C3B5B0007F13002134451
S1130DD013F8243C1A4697F92F3018461146FFF7AA
S1130DE05BFF97F92F301846FFF73CFF97F92F3038
S1130DF01846FFF705FF66E0FB795B00DBB23D3385
S1130E00DBB287F82F30FB79072B0FD8FB795B0017
S1130E10013307F13002134413F8143C1A4697F9CE
S1130E202F3018461146FFF737FF42E0FB79072BB6
S1130E301ED9FB790B2B1BD8FB79083BDBB234336F
S1130E40DBB25B00DBB287F82F30FB7903F10043A0
S1130E50083B5B00013307F13002134413F81C3CD8
S1130E601A4697F92F3018461146FFF715FF20E070
S1130E70FB790B2B1DD9FB790F2B1AD8FB790C3B73
S1130E80DBB25B00DBB27933DBB287F82F30FB795E
S1130E9003F100430C3B5B00013307F130021344C0
S1130EA013F8243C1A4697F92F3018461146FFF7D9
S1130EB0F3FE97F92F301846FFF7D4FE97F92F3039
S1130EC01846FFF79DFE3437BD4690BD00990000DB
S1130ED01099000080B584B000AF03460A46FB7148
S1130EE01346BB71BB79002B29D1FB79072B06D89C
S1130EF0FB791E33DBB25B00DBB2FB7348E0FB79AA
S1130F00072B0BD9FB790B2B08D8FB79083BDBB2F9
S1130F105B00DBB26733DBB2FB730FE0FB790B2BB7
S1130F200BD9FB790F2B08D8FB790C3BDBB23C3394
S1130F30DBB25B00DBB2FB7300E039E028E0FB7955
S1130F40072B06D8FB795B00DBB23D33DBB2FB73C6
S1130F501EE0FB79072B0BD9FB790B2B08D8FB7907
S1130F60083BDBB23433DBB25B00DBB2FB730FE074
S1130F70FB790B2B0BD9FB790F2B08D8FB790C3B96
S1130F80DBB25B00DBB27933DBB2FB7300E00FE072
S1130F9097F90F301846FFF765FE97F90F3018469A
S1130FA0FFF746FE97F90F3018460F21FFF774FE3E
S1130FB01037BD4680BD00BF80B485B000AF7860F7
S1130FC00023FB607B68002B1BD00023BB6015E073
S1130FD00F4ABB682C2101FB03F313441A687B6896
S1130FE09A4208D1BB682C2202FB03F31033084A4F
S1130FF01344FB6005E0BB680133BB60BB68012B95
S1131000E6D9FB6818461437BD465DF8047B704783
S11310100400FD1F80B582B000AF786039607B6842
S1131020002B09D03B68002B06D03B689B68002B43
S113103002D03B689B6898470837BD4680BD00BF17
S113104080B582B000AF786039607B68002B35D002
S11310503B68002B32D07B685B79DBB25B0803F022
S11310600103DBB2012B06D13B685B68002B02D085
S11310703B685B6898477B685B7903F00103DBB2EC
S1131080012B06D13B68DB68002B02D03B68DB6890
S113109098477B689B8A9BB29B0A03F00103DBB2EF
S11310A0012B0BD13B681B69002B02D03B681B69E9
S11310B098477B689A8A22F480629A820837BD46F0
S11310C080BD00BF80B483B000AF78600B46FB7076
S11310D07B68002B01D1042329E0FB78032B23D860
S11310E001A252F823F000BFF9100000051100001E
S11310F0111100001D1100007B685A7842F00802AB
S11311005A7013E07B685A7842F010025A700DE06E
S11311107B685A7842F004025A7007E07B689A8A26
S113112042F400729A8201E0042300E0002318468E
S11311300C37BD465DF8047B704700BF80B483B0B4
S113114000AF78600B46FB707B68002B01D1042351
S113115029E0FB78032B23D801A252F823F000BF27
S1131160711100007D11000089110000951100002B
S11311707B685A7822F008025A7013E07B685A7828
S113118022F010025A700DE07B685A7822F00402B3
S11311905A7007E07B689A8A22F400729A8201E00E
S11311A0042300E0002318460C37BD465DF8047B99
S11311B0704700BF80B586B000AF7860396007F132
S11311C0100318460121FFF7B7FB07F10C0318467B
S11311D00121FFF7B1FB07F1080318460121FFF7CE
S11311E0ABFB7868FFF7E8FE78617B69002B02D0DF
S11311F03B68002B01D1042398E17B6803F1404351
S1131200A3F560331B0AFB74FB7C0F2B01D9042369
S11312108CE17B6901221A703B681B78002B02D099
S1131220012B05D00BE03B7C03F01F033B7408E06B
S11312303B7C03F01F0343F020033B7401E00423D1
S113124074E13B7C43F001033B743B681B7A022B43
S11312500CD0032B13D0002B1AD13B7A23F00803B4
S11312603B723B7A23F010033B7213E03B7A23F08A
S113127008033B723B7A43F010033B720AE03B7A6B
S113128043F008033B723B7A43F010033B7201E0E6
S113129004234BE13B685B7A032B2FD801A252F85D
S11312A023F000BFB5120000C7120000D9120000DD
S11312B0EB1200003B7C23F008033B743B7A23F0E1
S11312C040033B721CE03B7C43F008033B743B7AD5
S11312D023F040033B7213E03B7C23F008033B7490
S11312E03B7A43F040033B720AE03B7C43F0080343
S11312F03B743B7A43F040033B7201E0042315E165
S11313003B689B7A042B2ED801A252F823F000BF2D
S11313104F13000025130000331300004113000095
S1131320591300003B7A23F0070343F001033B7297
S11313301BE03B7A23F0070343F002033B7214E003
S11313403B7A23F0070343F003033B720DE03B7A3F
S113135023F007033B7208E03B7A23F0070343F0D2
S113136004033B7201E00423E0E03B68DB7A002BDA
S113137002D0012B05D009E03B7C23F004033B742D
S113138006E03B7C43F004033B7401E00423CDE01E
S11313903B685B7B012B04D13B7A63F07F033B7298
S11313A003E03B7A03F07F033B723B681B7B012B1A
S11313B004D13B7A43F020033B7203E03B7A23F0F1
S11313C020033B727B685A7862F07F025A703B6854
S11313D05B687868194600F003F97B683A7C1A70F8
S11313E07B683A7B5A707B683A7A1A713B689B7BBC
S11313F0012B01D1012200E000227B68D0039A89ED
S1131400C2F30E02114602460A439A813B681B69E5
S1131410002B38D07B689A8A42F004029A827B6857
S11314209A8A42F008029A827B689A8A42F400629D
S11314309A823B681B691B78002B02D0012B06D0D3
S11314400BE07B689A8A22F480729A8207E07B68B8
S11314509A8A42F480729A8201E0042366E03B682F
S11314601B695A787B681A763B681B699A787B6893
S11314705A767B689A8A42F001029A827B689A8A39
S113148042F002029A823B685B69002B27D03B68DA
S11314905B695B78012B04D17B685A7842F01002B7
S11314A05A703B685B691B78012B04D17B685A78BE
S11314B042F008025A703B685B699B78012B04D1A7
S11314C07B685A7842F004025A703B685B69DB78A7
S11314D0012B04D17B689A8A42F400729A823B6899
S11314E09B69002B13D03B689B695A687B699A609F
S11314F03B689B691A687B695A603B689B699A6878
S11315007B69DA603B689B69DA687B691A613B68CE
S11315101B7F012B09D1FB7C18460021FFF7E6FB5A
S1131520FB7C18460121FFF7E1FB0023184618371E
S1131530BD4680BD80B584B000AF78600B46FB70BB
S11315407B6803F14043A3F560331B0ABB73BB7B89
S11315500F2B01D904233FE07868FFF72DFDB86015
S1131560BB68002B02D10423FB7334E07B685A78F8
S113157022F001025A707B685A7822F002025A70F3
S11315807B6800229A817B6800221A707B680022A3
S11315905A707B685A7962F07F025A717B68002224
S11315A05A717B6800221A717B6800229A827B68D8
S11315B05A7862F07F025A70FB78012B09D1BB7B09
S11315C018460021FFF786FCBB7B18460121FFF774
S11315D081FC0023FB73FB7B18461037BD4680BD9E
S11315E080B584B000AF78603960FEF75BFE7B683D
S11315F0002B02D03B68032B01D804231FE0124BBD
S11316001A68124BDB6903F0030322FA03F3FB604D
S1131610FA683B68B2FBF3F39BB2013B9BB2C3F3A2
S11316200E039BB27A68C3F30E00938923F4FF433D
S113163023F07F03194603460B4393810023184686
S11316401037BD4680BD00BF0000FD1F00000140F3
S113165080B483B000AF78600B46FB707B68002BCE
S113166001D1042314E0FB78002B02D0012B06D017
S11316700BE07B685A7842F001025A7007E07B68FD
S11316805A7842F002025A7001E0042300E0002379
S113169018460C37BD465DF8047B704780B483B0B0
S11316A000AF78600B46FB707B68002B01D10423EC
S11316B014E0FB78002B02D0012B06D00BE07B68F2
S11316C05A7822F001025A7007E07B685A7822F0B7
S11316D002025A7001E0042300E0002318460C378C
S11316E0BD465DF8047B704780B485B000AF786078
S11316F00B46FB700023FB73FB78062B4DD801A22D
S113170052F823F02117000033170000451700009A
S113171057170000691700007B17000089170000A5
S11317207B685B79DBB25B0903F00103DBB2FB731B
S113173034E07B685B79DBB21B0903F00103DBB2A5
S1131740FB732BE07B685B79DBB2DB0803F00103FE
S1131750DBB2FB7322E07B685B79DBB29B0803F0AE
S11317600103DBB2FB7319E07B685B79DBB25B08D6
S113177003F00103DBB2FB7310E07B685B7903F0D9
S11317800103DBB2FB7309E07B689B8A9BB29B0A73
S113179003F00103DBB2FB7300E000BFFB7B1846E0
S11317A01437BD465DF8047B704700BF80B483B036
S11317B000AF78600B46FB707B68002B01D10423DB
S11317C024E0FB78062B1DD801A252F823F000BFB9
S11317D0ED170000ED170000ED17000009180000D8
S11317E00918000009180000F91700007B685A79ED
S11317F062F07F025A7108E07B689A8A22F4806260
S11318009A8202E0042301E000BF002318460C374B
S1131810BD465DF8047B704780B483B000AF786048
S11318200B467B807B68002B01D1042303E07B689B
S11318307A881A81002318460C37BD465DF8047B6C
S1131840704700BF80B483B000AF78607B681B89A9
S11318509BB218460C37BD465DF8047B704700BF49
S113186080B483B000AF78600B46FB707B68002BBC
S113187001D1042314E0FB78002B02D0012B06D005
S11318800BE07B689A8A42F004029A8207E07B6844
S11318909A8A42F008029A8201E0042300E00023BD
S11318A018460C37BD465DF8047B704780B483B09E
S11318B000AF78600B46FB701346BB707B68002B4F
S11318C001D1042310E0FB78002B02D0012B04D0BB
S11318D007E07B68BA781A7605E07B68BA785A76AE
S11318E001E0042300E0002318460C37BD465DF8F0
S11318F0047B704780B485B000AF78600B46FB7002
S1131900FF23FB73FB78002B02D0012B04D007E0EC
S11319107B681B7EFB7303E07B685B7EFB7300BF0D
S1131920FB7B18461437BD465DF8047B704700BF47
S113193080B485B000AF78600023FB607B68002B27
S11319401BD00023BB6015E00F4ABB682C2101FBB0
S113195003F313445A687B689A4208D1BB682C226B
S113196002FB03F31033084A1344FB6005E0BB6831
S11319700133BB60BB68012BE6D9FB6818461437FA
S1131980BD465DF8047B70470400FD1F80B582B03E
S113199000AF786039607B68002B09D03B68002B6E
S11319A006D03B689B68002B02D03B689B68984735
S11319B00837BD4680BD00BF80B582B000AF7860F7
S11319C039607B68002B4AD03B68002B47D07B688A
S11319D05B79DBB25B0803F00103DBB2012B06D1B8
S11319E03B685B68002B02D03B685B6898477B6868
S11319F05B7903F00103DBB2012B06D13B68DB68A2
S1131A00002B02D03B68DB6898477B689B8A9BB2BB
S1131A109B0A03F00103DBB2012B0BD13B681B696A
S1131A20002B02D03B681B6998477B689A8A22F492
S1131A3080629A827B689B8C9BB2DB0A03F0010371
S1131A40DBB2012B0BD13B685B69002B02D03B68F6
S1131A505B6998477B689A8C22F400629A84083701
S1131A60BD4680BD80B582B000AF786039607B68C8
S1131A70002B17D03B68002B14D07B689B8C9BB247
S1131A801B0A03F00103DBB2012B0BD13B689B69FA
S1131A90002B02D03B689B6998477B689A8C22F4A0
S1131AA080729A840837BD4680BD00BF80B584B07B
S1131AB000AF78600B46FB707868FFF739FFF86079
S1131AC0FB68002B01D1042339E0FB78052B33D8C4
S1131AD001A252F823F000BFF11A0000FD1A000021
S1131AE0091B0000151B0000211B00002D1B00001A
S1131AF07B685A7842F008025A701FE07B685A7873
S1131B0042F010025A7019E07B685A7842F00402DD
S1131B105A7013E07B689A8A42F400729A820DE04C
S1131B207B689A8C42F480529A8407E07B689A8C92
S1131B3042F080029A8401E0042300E00023184666
S1131B401037BD4680BD00BF80B483B000AF78605D
S1131B500B46FB707B68002B01D1042339E0FB7832
S1131B60052B33D801A252F823F000BF851B0000D7
S1131B70911B00009D1B0000A91B0000B51B000069
S1131B80C11B00007B685A7822F008025A701FE0DB
S1131B907B685A7822F010025A7019E07B685A78F0
S1131BA022F004025A7013E07B689A8A22F40072CD
S1131BB09A820DE07B689A8C22F480529A8407E022
S1131BC07B689A8C22F080029A8401E0042300E06E
S1131BD0002318460C37BD465DF8047B704700BFF0
S1131BE080B588B000AF7860396007F118031846F3
S1131BF00121FEF7A1FE07F1140318460121FEF7A7
S1131C009BFE07F1100318460121FEF795FE07F12C
S1131C100C0318460121FEF78FFE7868FFF788FE53
S1131C20F861FB69002B02D03B68002B01D104232F
S1131C30B3E37B6803F14043A3F560331B0AFB76EF
S1131C40FB7E0F2B01D90423A7E3FB6902221A7040
S1131C503B7E03F01F0343F040033B763B681B7855
S1131C60002B02D0012B0DD019E03B7D23F0400363
S1131C703B753B7E43F001033B763B7E43F002031E
S1131C803B760EE03B7D43F040033B753B7E43F0E7
S1131C9001033B763B7E23F002033B7601E0042301
S1131CA07BE33B681B7A002B02D0012B05D009E0B3
S1131CB03B7D23F020033B7506E03B7D43F020038E
S1131CC03B7501E0042368E33B685B7A032B23D86C
S1131CD001A252F823F000BFE91C0000F31C00002D
S1131CE0011D00000F1D00003B7B23F018033B7314
S1131CF014E03B7B23F0180343F008033B730DE02F
S1131D003B7B23F0180343F010033B7306E03B7B5B
S1131D1043F018033B7301E004233EE33B7B23F0D1
S1131D2040033B733B689B7A0B2B79D801A252F892
S1131D3023F000BF651D0000731D0000811D00001D
S1131D408F1D0000991D0000A71D0000B51D000097
S1131D50C31D0000CD1D0000DF1D0000F51D0000A7
S1131D600B1E00003B7B23F0070343F001033B738E
S1131D7058E03B7B23F0070343F002033B7351E03D
S1131D803B7B23F0070343F003033B734AE03B7BB5
S1131D9023F007033B7345E03B7B23F0070343F049
S1131DA004033B733EE03B7B23F0070343F005034E
S1131DB03B7337E03B7B23F0070343F006033B739D
S1131DC030E03B7B43F007033B732BE03B7B23F08A
S1131DD007033B733B7B43F040033B7322E03B7BB5
S1131DE023F0070343F001033B733B7B43F04003C1
S1131DF03B7317E03B7B23F0070343F002033B7381
S1131E003B7B43F040033B730CE03B7B23F0070335
S1131E1043F003033B733B7B43F040033B7301E01C
S1131E200423BAE23B68DB7A002B02D0012B05D0F5
S1131E3009E03B7E23F004033B7606E03B7E43F05F
S1131E4004033B7601E00423A7E23B681B7B012BE0
S1131E5004D13B7E43F008033B7603E03B7E23F052
S1131E6008033B763B7C63F07F033B743B685B6811
S1131E707868194600F00AFB7B683A7E1A707B6822
S1131E803A7D5A707B683A7B1A717B683A7C5A7146
S1131E903B681B69002B71D03B681B691B78082BBE
S1131EA05AD801A252F823F0CD1E0000D91E00001A
S1131EB0E91E0000F91E0000091F0000191F0000A0
S1131EC0291F0000391F0000491F00007B689A8CFD
S1131ED022F01E029A8441E07B689A8C22F01E0252
S1131EE042F002029A8439E07B689A8C22F01E0246
S1131EF042F004029A8431E07B689A8C22F01E023C
S1131F0042F006029A8429E07B689A8C22F01E0231
S1131F1042F008029A8421E07B689A8C22F01E0227
S1131F2042F00A029A8419E07B689A8C22F01E021D
S1131F3042F00C029A8411E07B689A8C22F01E0213
S1131F4042F00E029A8409E07B689A8C22F01E0209
S1131F5042F010029A8401E004231EE23B681B69EC
S1131F605A787B6883F83C203B681B695A887B68F5
S1131F709A857B689A8C42F040029A843B685B693C
S1131F80002B00F05B813B681B78002B40F0FB804A
S1131F903B685B691B78032B2AD801A252F823F013
S1131FA0B11F0000BD1F0000CD1F0000E11F000095
S1131FB07B681A8EC2F30D021A861BE07B681A8EA8
S1131FC0C2F30D0242F480421A8613E07A68138E3B
S1131FD0C3F30D036FEA43436FEA5343138609E0E7
S1131FE07A68138E6FEA83436FEA9343138601E0A2
S1131FF00423D2E13B685B695B78032B26D801A2FA
S113200052F823F0152000002120000031200000A8
S1132010412000007B681A8E22F440521A8617E091
S11320207B681A8E22F4405242F480521A860FE0E2
S11320307B681A8E22F4405242F400521A8607E05A
S11320407B681A8E42F440521A8601E00423A4E10C
S11320503B685B699A7A7B6883F83C203B685B69E0
S1132060DA7A7B6883F83D203B685B691A7B7B687E
S113207083F840203B685B695A7B7B6883F8412086
S11320803B685B699B78002B07D0012B0BD17B68E5
S11320901A8E22F020021A8607E07B681A8E42F01C
S11320A020021A8601E0042377E13B685B69DB7850
S11320B003F00103DAB27B6802F0010250021A8EC7
S11320C022F40072114602460A431A863B685B6991
S11320D01B79062B46D801A252F823F0F920000000
S11320E005210000152100002521000035210000F4
S11320F045210000552100007B681A8E22F4E0720D
S11321001A8631E07B681A8E22F4E07242F04002B3
S11321101A8629E07B681A8E22F4E07242F080026B
S11321201A8621E07B681A8E22F4E07242F0C00223
S11321301A8619E07B681A8E22F4E07242F48072E7
S11321401A8611E07B681A8E22F4E07242F4A072BF
S11321501A8609E07B681A8E22F4E07242F4C07297
S11321601A8601E0042318E13B685B695A797B68AD
S11321705A773B685B699A797B681A773B685B6935
S11321801A897B681A843B685B699B7B012B01D1AC
S1132190012200E000227B6802F0010250001A8E46
S11321A022F00202114602460A431A863B685B6922
S11321B0DB7B012B01D1012200E000227B6802F0CD
S11321C0010290001A8E22F00402114602460A43CC
S11321D01A863B685B691B7C012B01D1012200E05C
S11321E000227B6802F00102D0001A8E22F008025D
S11321F0114602460A431A863B685B695B7C012BE5
S113220001D1012200E000227B6802F001021001EA
S11322101A8E22F01002114602460A431A863B68BF
S11322201B78002B05D17B681A8E42F001021A86B6
S113223004E07B681A8E22F001021A863B689B69CF
S1132240002B38D07B689A8A22F004029A827B6839
S11322509A8A22F008029A827B689A8A42F400627F
S11322609A823B689B691B78002B02D0012B06D015
S11322700BE07B689A8A22F480729A8207E07B687A
S11322809A8A42F480729A8201E0042385E03B68D2
S11322909B695A787B681A763B689B699A787B6855
S11322A05A767B689A8A42F001029A827B689A8AFB
S11322B042F002029A823B68DB69002B3BD03B6808
S11322C0DB695B78012B04D17B685A7842F01002F9
S11322D05A703B68DB691B78012B04D17B685A7800
S11322E042F008025A703B68DB699B78012B04D1E9
S11322F07B685A7842F004025A703B68DB69DB78E9
S1132300012B04D17B689A8A42F400729A823B685A
S1132310DB691B79012B04D17B689A8C42F48052CF
S11323209A843B68DB695B79012B04D17B689A8CC6
S113233042F080029A843B681B6A002B1DD03B68E4
S11323401B6A5A68FB699A603B681B6A1A68FB69D6
S11323505A603B681B6A9A68FB69DA603B681B6ACF
S1132360DA68FB691A613B681B6A1A69FB695A617E
S11323703B681B6A5A69FB699A613B6893F824308D
S1132380012B09D1FB7E18460021FEF7AFFCFB7E32
S113239018460121FEF7AAFC002318462037BD4643
S11323A080BD00BF80B584B000AF78600B46FB7081
S11323B07B6803F14043A3F560331B0ABB73BB7B0B
S11323C00F2B01D904235CE07868FFF7B1FAB860F9
S11323D0BB68002B02D10423FB7351E07B685A785D
S11323E022F001025A707B685A7822F002025A7075
S11323F07B6800229A817B6800221A707B68002225
S11324005A707B685A7962F07F025A717B680022A5
S11324105A717B6800221A717B6800229A827B6859
S113242000229A847B6800229A857B6800221A869F
S11324307B6800221A777B6800225A777B68002227
S11324401A847B68002283F83C207B68002283F88E
S11324503D207B68002283F840207B68002283F8BB
S11324604120FB78012B09D1BB7B18460021FEF7E4
S113247031FDBB7B18460121FEF72CFD0023FB73C5
S1132480FB7B18461037BD4680BD00BF80B584B0C5
S113249000AF78603960FDF705FF7B68002B02D040
S11324A03B68022B01D804231FE0124B1A68124B1D
S11324B0DB6903F0030322FA03F3FB60FA683B6869
S11324C0B2FBF3F39BB2013B9BB2C3F30E039BB28B
S11324D07A68C3F30E00938923F4FF4323F07F0348
S11324E0194603460B439381002318461037BD4613
S11324F080BD00BF0000FD1F0000014080B483B018
S113250000AF78600B467B807B68002B01D10423ED
S113251003E07B687A889A85002318460C37BD4609
S11325205DF8047B704700BF80B483B000AF78606F
S11325300B46FB701346BB707B68002B01D1042350
S113254025E0FB78032B1FD801A252F823F000BF2B
S1132550612500006B250000752500007F25000023
S11325607B68BA7883F83C2010E07B68BA7883F8FB
S11325703D200BE07B68BA7883F8402006E07B6856
S1132580BA7883F8412001E0042300E000231846D0
S11325900C37BD465DF8047B704700BF80B483B040
S11325A000AF78600B46FB707B68002B01D10423DD
S11325B011E0FB78012B01D1012200E000227B68AD
S11325C002F0010250021A8E22F4007211460246F1
S11325D00A431A86002318460C37BD465DF8047B6F
S11325E0704700BF80B483B000AF78600B46FB70C7
S11325F07B68002B01D1042304E07B68FA7883F81C
S11326003C20002318460C37BD465DF8047B704718
S113261080B483B000AF78600B46FB707B68002BFE
S113262001D1042329E0FB78032B23D801A252F81B
S113263023F000BF45260000512600005D2600005F
S1132640692600007B685A7842F001025A7013E050
S11326507B685A7842F002025A700DE07B689A8CCB
S113266042F001029A8407E07B689A8C42F400529B
S11326709A8401E0042300E0002318460C37BD4689
S11326805DF8047B704700BF80B483B000AF78600E
S11326900B46FB707B68002B01D1042329E0FB78F7
S11326A0032B23D801A252F823F000BFBD2600005B
S11326B0C9260000D5260000E12600007B685A7870
S11326C022F001025A7013E07B685A7822F0020269
S11326D05A700DE07B689A8C22F001029A8407E01C
S11326E07B689A8C22F400529A8401E0042300E06F
S11326F0002318460C37BD465DF8047B704700BFC5
S113270080B485B000AF78600B46FB700023FB7388
S1132710FB78062B4DD801A252F823F0392700008C
S11327204B2700005D2700006F2700007D27000075
S11327308F270000A12700007B685B79DBB2DB08F0
S113274003F00103DBB2FB7334E07B685B79DBB23B
S11327509B0803F00103DBB2FB732BE07B685B791E
S1132760DBB25B0803F00103DBB2FB7322E07B689E
S11327705B7903F00103DBB2FB731BE07B689B8A8C
S11327809BB29B0A03F00103DBB2FB7312E07B688C
S11327909B8C9BB2DB0A03F00103DBB2FB7309E001
S11327A07B689B8C9BB21B0A03F00103DBB2FB73B7
S11327B000E000BFFB7B18461437BD465DF8047B80
S11327C0704700BF80B483B000AF78600B46FB70E5
S11327D07B68002B01D1042330E0FB78062B29D839
S11327E001A252F823F000BF052800003928000098
S11327F03928000039280000112800001D28000095
S1132800292800007B685A7962F07F025A7114E02B
S11328107B689A8A22F480629A820EE07B689A8CA2
S113282022F400629A8408E07B689A8C22F4807215
S11328309A8402E0042301E000BF002318460C3709
S1132840BD465DF8047B704780B483B000AF786008
S11328500B467B8013467B707B68002B01D10423DD
S11328601DE07B78012B0BD101227B6802F0010073
S11328701A7822F00102114602460A431A700AE04D
S113288000227B6802F001001A7822F0010211464E
S113289002460A431A707B687A881A810023184614
S11328A00C37BD465DF8047B704700BF80B483B02D
S11328B000AF78607B681B899BB218460C37BD4615
S11328C05DF8047B704700BF80B483B000AF7860CC
S11328D00B46FB707B68002B01D1042314E0FB78CA
S11328E0002B02D0012B06D00BE07B689A8A42F0C1
S11328F004029A8207E07B689A8A42F008029A826C
S113290001E0042300E0002318460C37BD465DF8BF
S1132910047B704780B483B000AF78600B46FB70D3
S11329201346BB707B68002B01D1042310E0FB78B5
S1132930002B02D0012B04D007E07B68BA781A760A
S113294005E07B68BA785A7601E0042300E00023AE
S113295018460C37BD465DF8047B704780B485B0DB
S113296000AF78600B46FB70FF23FB73FB78002BF2
S113297002D0012B04D007E07B681B7EFB7303E0CD
S11329807B685B7EFB7300BFFB7B18461437BD4638
S11329905DF8047B704700BF80B485B000AF7860F9
S11329A00023FB607B68002B1CD00023BB6016E077
S11329B0104ABB682C2101FB03F3134408331A6843
S11329C07B689A4208D1BB682C2202FB03F31033C4
S11329D0084A1344FB6005E0BB680133BB60BB6875
S11329E0012BE5D9FB6818461437BD465DF8047B16
S11329F0704700BF0400FD1F80B582B000AF78604F
S1132A0039607B68002B09D03B68002B06D03B68FB
S1132A109B68002B02D03B689B6898470837BD46EB
S1132A2080BD00BF80B582B000AF786039607B683C
S1132A305B79DBB25B0803F00103DBB2012B06D147
S1132A403B685B68002B02D03B685B6898477B68F7
S1132A505B7903F00103DBB2012B06D13B68DB6831
S1132A60002B02D03B68DB6898477B689B8A9BB24B
S1132A709B0A03F00103DBB2012B0BD13B681B69FA
S1132A80002B02D03B681B6998477B689A8A22F422
S1132A9080629A820837BD4680BD00BF80B582B08F
S1132AA000AF786039607B68002B25D03B68002B31
S1132AB022D07B685B7803F00103DBB2012B06D1E3
S1132AC03B685B69002B02D03B685B6998477B6875
S1132AD01B79DBB25B0803F00103DBB2012B0BD1E2
S1132AE03B689B69002B02D03B689B6998477B68D5
S1132AF01A7922F002021A710837BD4680BD00BF60
S1132B0080B483B000AF78600B46FB707B68002B09
S1132B1001D1042339E0FB78052B33D801A252F804
S1132B2023F000BF3D2B0000492B0000552B000073
S1132B30612B00006D2B0000792B00007B681A7854
S1132B4042F004021A701FE07B681A7842F008020F
S1132B501A7019E07B689A8A42F400729A8213E030
S1132B607B685A7942F010025A710DE07B685A78FA
S1132B7042F004025A7007E07B685A7842F0080277
S1132B805A7001E0042300E0002318460C37BD46C8
S1132B905DF8047B704700BF80B483B000AF7860F9
S1132BA00B46FB707B68002B01D1042339E0FB78D2
S1132BB0052B33D801A252F823F000BFD52B000017
S1132BC0E12B0000ED2B0000F92B0000052C000088
S1132BD0112C00007B681A7822F004021A701FE09E
S1132BE07B681A7822F008021A7019E07B689A8AC6
S1132BF022F400729A8213E07B685A7922F0100260
S1132C005A710DE07B685A7822F004025A7007E08A
S1132C107B685A7822F008025A7001E0042300E02D
S1132C20002318460C37BD465DF8047B704700BF8F
S1132C3080B588B000AF7860396007F11403184696
S1132C400121FDF779FE07F1100318460121FDF774
S1132C5073FE07F10C0318460121FDF76DFE07F121
S1132C60080318460121FDF767FE7B6803F1404322
S1132C70A3F560331B0AFB77FB7F0F2B01D90423D9
S1132C801BE17868FFF788FEB861BB69002B02D0AE
S1132C903B68002B01D104230FE1BB6903221A70A6
S1132CA03B681B780033012B0FD83B7D03F01F03D7
S1132CB063F07F033B7500BF3B7C43F020033B7410
S1132CC03B681B78012B22D101E00423F5E03B682B
S1132CD01B7A03F07F03DBB203F07F013B7B23F01D
S1132CE07F031A460B4613433B733B7B63F07F031E
S1132CF03B733B685B7A03F07F03DBB203F07F0135
S1132D003B7A23F07F031A460B4613433B723B7A0C
S1132D1063F07F033B727B683A7D1A707B68002204
S1132D205A743B68DB7A012B05D17B685A7942F0EF
S1132D3020025A7104E07B685A7922F020025A7109
S1132D403B685B687868194600F006F97B683A7C52
S1132D505A707B683A7B1A747B683A7A5A743B6877
S1132D60DB68002B38D07B689A8A42F004029A828E
S1132D707B689A8A42F008029A827B689A8A42F4B3
S1132D8000629A823B68DB681B78002B02D0012B1F
S1132D9006D00BE07B689A8A22F480729A8207E05C
S1132DA07B689A8A42F480729A8201E0042384E068
S1132DB03B68DB685A787B681A763B68DB689A78EC
S1132DC07B685A767B689A8A42F001029A827B6811
S1132DD09A8A42F002029A823B681B69002B3BD01C
S1132DE03B681B691B78012B04D17B681A7842F07D
S1132DF004021A703B681B695B78012B04D17B6861
S1132E001A7842F008021A703B681B69DB78012BC0
S1132E1004D17B689A8A42F400729A823B681B69E7
S1132E209B78012B04D17B685A7942F010025A71C5
S1132E303B681B691B79012B04D17B685A7842F0EB
S1132E4004025A703B681B695B79012B04D17B68CF
S1132E505A7842F008025A703B685B69002B1DD017
S1132E603B685B691A68BB695A603B685B695A686E
S1132E70BB699A603B685B69DA68BB691A613B6845
S1132E805B699A68BB69DA603B685B691A69BB690C
S1132E905A613B685B695A69BB699A613B681B7EEE
S1132EA0012B09D1FB7F18460021FDF71FFFFB7F93
S1132EB018460121FDF71AFF002318462037BD46A6
S1132EC080BD00BF80B584B000AF78600B46FB7056
S1132ED07B6803F14043A3F560331B0ABB73BB7BE0
S1132EE00F2B01D9042332E07868FFF755FDB86051
S1132EF0BB68002B02D10423FB7327E07B685A7C58
S1132F0002F07F025A747B6800221A707B680022E8
S1132F105A707B685A7962F07F025A717B6800228A
S1132F205A717B6800221A717B6800229A82FB78AE
S1132F30012B09D1BB7B18460021FDF7CBFFBB7BDE
S1132F4018460121FDF7C6FF0023FB73FB7B1846DF
S1132F501037BD4680BD00BF80B584B000AF786037
S1132F6039600023FB73FDF79DF97B68002B03D0C8
S1132F703B68204A934201D9042337E07B685B7C99
S1132F80DBB2DB09DBB2FB737B685A7C62F07F0245
S1132F905A74194B1A68194BDB6903F0030322FABC
S1132FA003F3BB60BA683B68B2FBF3F39BB2013B2B
S1132FB09BB2C3F30E039BB27A68C3F30E009389EA
S1132FC023F4FF4323F07F03194603460B43938105
S1132FD0FB7B03F00103DAB27B68D0015A7C02F078
S1132FE07F02114602460A435A74002318461037DA
S1132FF0BD4680BD801A06000000FD1F0000014090
S113300080B485B000AF7860154B1B68FB607B68AB
S1133010002B01D104231DE07B685A7862F07F0203
S11330205A7011E07B685B78DBB2DB09DBB2012B01
S11330300AD17B685B78DBB29B0903F00103DBB246
S1133040012B01D1002305E0FB685A1EFA60002B16
S1133050E8D1092318461437BD465DF8047B704750
S11330600000FD1F80B485B000AF7860124B1B6870
S1133070FB607B68002B01D1042316E07B685A783F
S113308042F040025A700AE07B681B79DBB29B086D
S113309003F00103DBB2012B01D1002305E0FB683F
S11330A05A1EFA60002BEFD1092318461437BD4687
S11330B05DF8047B704700BF0000FD1F80B485B03D
S11330C000AF7860174B1B68FB607B68002B01D155
S11330D0042320E019E07B685B78DBB203F03E0355
S11330E0DAB27B685A707B685B78DBB2DB09DBB2EF
S11330F0002B0AD17B685B78DBB29B0903F00103E8
S1133100DBB2002B01D1002305E0FB685A1EFA60F4
S1133110002BE0D1092318461437BD465DF8047B23
S1133120704700BF0000FD1F80B483B000AF78601B
S11331300B46FB707B68002B01D1042304E0FB7871
S11331409AB27B681A81002318460C37BD465DF895
S1133150047B704780B483B000AF78607B681B89C0
S11331609BB2DBB218460C37BD465DF8047B704752
S113317080B485B000AF78600B46FB707B685B78E9
S11331803B737B68002B01D1042321E0FB78002BE7
S11331900BD1012303F0010359013B7B23F02003EE
S11331A01A460B4613433B730AE0002303F0010362
S11331B059013B7B23F020031A460B4613433B7310
S11331C03B7B23F040033B737B683A7B5A700023BC
S11331D018461437BD465DF8047B704780B485B04B
S11331E000AF78607B681B79DBB29B0903F00103B5
S11331F0DBB2FB73FB7B18461437BD465DF8047BDA
S1133200704700BF80B485B000AF78600B46FB7098
S11332100023FB73FB780B2B00F28D8001A252F884
S113322023F000BF553200006732000079320000FD
S11332308B32000099320000AB320000B93200003A
S1133240CB320000DD320000EB320000FD32000022
S11332500B3300007B685B79DBB2DB0803F001030E
S1133260DBB2FB7368E07B685B79DBB29B0803F03D
S11332700103DBB2FB735FE07B685B79DBB25B0865
S113328003F00103DBB2FB7356E07B685B7903F068
S11332900103DBB2FB734FE07B689B8A9BB29B0A02
S11332A003F00103DBB2FB7346E07B681B79DBB2FE
S11332B0DB09DBB2FB733FE07B681B79DBB25B09A4
S11332C003F00103DBB2FB7336E07B681B79DBB2EE
S11332D05B0803F00103DBB2FB732DE07B681B7911
S11332E003F00103DBB2FB7326E07B685B78DBB29F
S11332F05B0803F00103DBB2FB731DE07B685B78C2
S113330003F00103DBB2FB7316E07B685B78DBB28E
S1133310DB09DBB2002B0BD17B685B78DBB29B094A
S113332003F00103DBB2012B02D10123FB7303E0A1
S11333300023FB7300E000BFFB7B18461437BD4637
S11333405DF8047B704700BF80B483B000AF786041
S11333500B46FB707B68002B01D104233DE0FB7816
S11333600B2B36D801A252F823F000BF9D33000086
S1133370D7330000D7330000D7330000A93300004F
S1133380D7330000D7330000B5330000D733000033
S1133390D7330000C1330000D73300007B685A796B
S11333A062F07F025A7117E07B689A8A22F4806285
S11333B09A8211E07B681A7922F002021A710BE0FA
S11333C07B685B78DBB223F04103DAB27B685A7026
S11333D002E0042301E000BF002318460C37BD4679
S11333E05DF8047B704700BF80B485B000AF78609F
S11333F07B681B79DBB21B0903F00103DBB2002BF2
S113340002D10023FB7301E00123FB73FB7B18460D
S11334101437BD465DF8047B704700BF80B483B0A9
S113342000AF78600B46FB707B68002B01D104234E
S113343014E0FB78002B02D0012B06D00BE07B6854
S11334409A8A42F004029A8207E07B689A8A42F0E0
S113345008029A8201E0042300E0002318460C3796
S1133460BD465DF8047B704780B483B000AF7860DC
S11334700B46FB701346BB707B68002B01D1042301
S113348010E0FB78002B02D0012B04D007E07B680E
S1133490BA781A7605E07B68BA785A7601E0042394
S11334A000E0002318460C37BD465DF8047B7047E6
S11334B080B485B000AF78600B46FB70FF23FB73CC
S11334C0FB78002B02D0012B04D007E07B681B7E25
S11334D0FB7303E07B685B7EFB7300BFFB7B1846DA
S11334E01437BD465DF8047B704700BF80B485B0D7
S11334F000AF78600023FB607B68002B1CD00023A6
S1133500BB6016E0104ABB682C2101FB03F3134493
S113351008335A687B689A4208D1BB682C2202FBA4
S113352003F31033084A1344FB6005E0BB6801331E
S1133530BB60BB68012BE5D9FB6818461437BD4650
S11335405DF8047B704700BF0400FD1F80B582B0A6
S113355000AF786039607B68002B09D03B68002B92
S113356006D03B689B68002B02D03B689B68984759
S11335700837BD4680BD00BF80B582B000AF78601B
S113358039607B68002B35D03B68002B32D07B68D8
S11335905B79DBB25B0803F00103DBB2012B06D1DC
S11335A03B685B68002B02D03B685B6898477B688C
S11335B05B7903F00103DBB2012B06D13B681B6985
S11335C0002B02D03B681B6998477B689B8A9BB29F
S11335D09B0A03F00103DBB2012B0BD13B685B694F
S11335E0002B02D03B685B6998477B689A8A22F477
S11335F080629A820837BD4680BD00BF80B582B024
S113360000AF786039607B685B79DBB25B0903F0FB
S11336100103DBB2012B0BD17B685A7922F0200223
S11336205A713B68DB68002B02D03B68DB68984723
S11336300837BD4680BD00BF80B483B000AF78605A
S11336400B46FB707B68002B01D1042331E0FB782F
S1133650042B2BD801A252F823F000BF71360000CE
S11336607D3600008936000095360000A136000042
S11336707B685A7842F008025A7019E07B685A78DD
S113368042F010025A7013E07B681A7942F010027B
S11336901A710DE07B685A7842F004025A7007E010
S11336A07B689A8A42F400729A8201E0042300E063
S11336B0002318460C37BD465DF8047B704700BFF5
S11336C080B483B000AF78600B46FB707B68002B3E
S11336D001D1042331E0FB78042B2BD801A252F84A
S11336E023F000BFF9360000053700001137000051
S11336F01D370000293700007B685A7822F0080241
S11337005A7019E07B685A7822F010025A7013E05C
S11337107B681A7922F010021A710DE07B685A78DE
S113372022F004025A7007E07B689A8A22F400723D
S11337309A8201E0042300E0002318460C37BD46BA
S11337405DF8047B704700BF80B588B000AF786037
S113375039606423FB6107F1100318460121FDF76A
S1133760EBF807F10C0318460121FDF7E5F807F122
S1133770080318460121FDF7DFF87B6803F1404395
S1133780A3F560331B0AFB76FB7E0F2B01D90423C0
S11337908DE17868FFF7AAFE78617B69002B02D07F
S11337A03B68002B01D1042381E17B6904221A7058
S11337B07B6800221A707B6800225A707B685A78F2
S11337C062F07F025A703B7C03F01F0343F06003F6
S11337D03B743B7C43F001033B743B681B78002B38
S11337E002D0012B05D009E03B7B23F040033B735F
S11337F006E03B7B43F040033B7301E0042356E1C6
S11338003B681B78002B40F089803B681B7A032BB4
S11338102ED801A252F823F0293800003B380000CA
S11338204D3800005F3800003B7C23F008033B74F4
S11338303B7A23F040033B721CE03B7C43F00803DB
S11338403B743B7A23F040033B7213E03B7C23F050
S113385008033B743B7A43F040033B720AE03B7C31
S113386043F008033B743B7A43F040033B7201E0AE
S113387004231CE13B685B7A032B23D801A252F892
S113388023F000BF953800009F380000AD380000D9
S1133890BB3800003B7A23F00C033B7214E03B7A04
S11338A023F00C0343F004033B720DE03B7A23F056
S11338B00C0343F008033B7206E03B7A43F00C032D
S11338C03B7201E00423F2E03B689B7A032B23D88C
S11338D001A252F823F000BFE9380000F3380000D9
S11338E0013900000F3900003B7A23F003033B72D7
S11338F014E03B7A23F0030343F001033B720DE031
S11339003B7A23F0030343F002033B7206E03B7A65
S113391043F003033B7201E00423C8E03B685B68A7
S11339207868194600F01EF97B683A7C1A707B6847
S11339303A7B5A707B683A7A1A713B68DB7A012BBE
S113394001D1012200E000227B68D0039A89C2F3EE
S11339500E02114602460A439A8104E07B685A79B2
S113396022F020025A71FB695A1EFA61002BF5D12C
S11339703B68DB68002B38D07B689A8A42F00402EB
S11339809A827B689A8A42F008029A827B689A8AB1
S113399042F400629A823B68DB681B78002B02D0F9
S11339A0012B06D00BE07B689A8A22F480729A82FB
S11339B007E07B689A8A42F480729A8201E00423C9
S11339C075E03B68DB685A787B681A763B68DB688D
S11339D09A787B685A767B689A8A42F001029A82C6
S11339E07B689A8A42F002029A823B681B69002B28
S11339F031D03B681B691B78012B04D17B685A7852
S1133A0042F008025A703B681B695B78012B04D1B1
S1133A107B685A7842F010025A703B681B69DB7865
S1133A20012B04D17B685A7842F004025A703B6837
S1133A301B691B79012B04D17B689A8A42F40072BA
S1133A409A823B681B699B78012B04D17B681A79A5
S1133A5042F010021A713B685B69002B18D03B6876
S1133A605B695A687B699A603B685B691A687B6921
S1133A705A603B685B69DA687B691A613B685B6919
S1133A801A697B695A613B685B699A687B69DA6089
S1133A903B681B7E012B09D1FB7E18460021FDF7F4
S1133AA025F9FB7E18460121FDF720F9002318466D
S1133AB02037BD4680BD00BF80B584B000AF7860BC
S1133AC00B46FB707B6803F14043A3F560331B0A8C
S1133AD0BB73BB7B0F2B01D904233FE07868FFF74E
S1133AE005FDB860BB68002B02D10423FB7334E0EE
S1133AF07B685A7822F001025A707B685A7822F067
S1133B0002025A707B6800229A817B6800221A7034
S1133B107B6800225A707B685A7962F07F025A717E
S1133B207B6800225A717B6800221A717B6800222C
S1133B309A827B685A7862F07F025A70FB78012B74
S1133B4009D1BB7B18460021FDF7C4F9BB7B18469D
S1133B500121FDF7BFF90023FB73FB7B18461037E7
S1133B60BD4680BD80B584B000AF78603960FCF795
S1133B7099FB7B68002B02D03B68022B01D80423FD
S1133B801FE0124B1A68124BDB6903F0030322FA9D
S1133B9003F3FB60FA683B68B2FBF3F39BB2013BAF
S1133BA09BB2C3F30E039BB27A68C3F30E009389EE
S1133BB023F4FF4323F07F03194603460B43938109
S1133BC0002318461037BD4680BD00BF0000FD1F0E
S1133BD00000014080B483B000AF78607B68002BA4
S1133BE001D1042305E07B685A7842F020025A7020
S1133BF0002318460C37BD465DF8047B704700BFB0
S1133C0080B483B000AF78600B46FB707B68002BF8
S1133C1001D1042314E0FB78002B02D0012B06D041
S1133C200BE07B685A7842F001025A7007E07B6827
S1133C305A7842F002025A7001E0042300E00023A3
S1133C4018460C37BD465DF8047B704780B483B0DA
S1133C5000AF78600B46FB707B68002B01D1042316
S1133C6014E0FB78002B02D0012B06D00BE07B681C
S1133C705A7822F001025A7007E07B685A7822F0E1
S1133C8002025A7001E0042300E0002318460C37B6
S1133C90BD465DF8047B704780B485B000AF7860A2
S1133CA00B46FB700023FB73FB78062B4DD801A257
S1133CB052F823F0D13C0000E33C0000F53C000046
S1133CC0073D0000193D0000273D0000393D00007C
S1133CD07B685B79DBB21B0903F00103DBB2FB7386
S1133CE034E07B685B79DBB2DB0803F00103DBB211
S1133CF0FB732BE07B685B79DBB29B0803F0010369
S1133D00DBB2FB7322E07B685B79DBB25B0803F018
S1133D100103DBB2FB7319E07B685B7903F00103F9
S1133D20DBB2FB7312E07B685B79DBB25B0903F007
S1133D300103DBB2FB7309E07B689B8A9BB29B0A9D
S1133D4003F00103DBB2FB7300E000BFFB7B18460A
S1133D501437BD465DF8047B704700BF80B483B060
S1133D6000AF78600B46FB707B68002B01D1042305
S1133D702AE0FB78062B23D801A252F823F000BFD7
S1133D809D3D00009D3D0000C53D0000C53D000077
S1133D90C53D0000A93D0000B53D00007B685A798F
S1133DA062F07F025A710EE07B685A7922F0200299
S1133DB05A7108E07B689A8A22F480629A8202E04F
S1133DC0042301E000BF002318460C37BD465DF80C
S1133DD0047B704780B483B000AF78600B46FB70FF
S1133DE07B68002B01D1042304E0FB789AB27B6842
S1133DF01A81002318460C37BD465DF8047B7047D2
S1133E0080B483B000AF78607B681B899BB2DBB25F
S1133E1018460C37BD465DF8047B704780B483B008
S1133E2000AF78600B46FB707B68002B01D1042344
S1133E3014E0FB78002B02D0012B06D00BE07B684A
S1133E409A8A42F004029A8207E07B689A8A42F0D6
S1133E5008029A8201E0042300E0002318460C378C
S1133E60BD465DF8047B704780B483B000AF7860D2
S1133E700B46FB701346BB707B68002B01D10423F7
S1133E8010E0FB78002B02D0012B04D007E07B6804
S1133E90BA781A7605E07B68BA785A7601E004238A
S1133EA000E0002318460C37BD465DF8047B7047DC
S1133EB080B485B000AF78600B46FB70FF23FB73C2
S1133EC0FB78002B02D0012B04D007E07B681B7E1B
S1133ED0FB7303E07B685B7EFB7300BFFB7B1846D0
S1133EE01437BD465DF8047B704700BF80B588B0C9
S1133EF000AF3B4618462021FCF71EFD00233B7013
S1133F004FF4E1337B600023BB7200233B72002338
S1133F107B720023FB7200233B7300237B7300231B
S1133F203B61104B1A683B4610461946FDF742F9AF
S1133F300D4B00221A700D4A0C4BD3F81C3623F09B
S1133F40C00343F04003C2F81C36094B01221A7027
S1133F50044B1B6818460021FDF77AFB2037BD4649
S1133F6080BD00BF5C00FD1F7CA0DE4200F0064067
S1133F700801DE4280B586B000AFF860B9607A60AF
S1133F8000237B612CE0BB681B780A2B0FD100BF98
S1133F90184B1B6818460421FDF7A6FB0346012BAA
S1133FA0F6D1144B1B6818460D21FDF735FC00BFF4
S1133FB0104B1B6818460421FDF796FB0346012BA2
S1133FC0F6D10C4B1A68BB681B789BB21046194695
S1133FD0FDF722FCBB680133BB607B6901337B6165
S1133FE07A697B689A42CEDB7B6818461837BD46EF
S1133FF080BD00BF5C00FD1F0FB400B5074983B04E
S113400004AB086853F8042B8168019300F0E4F9C9
S113401003B05DF804EB04B0704700BF8804FD1FD3
S1134020F0B5054689B008460C4600F0A7F9AB6B1D
S1134030134F04940126441C04A9022203940590FE
S1134040AC680697079601910292ABB1A3899A04D2
S113405006D4626E43F4005322F40052A3816266D4
S11340602846214601AA02F097FE002814BF4FF00B
S1134070FF300A2009B0F0BD284602F05DFDE5E7F7
S113408018990000024B01461868FFF7C9BF00BF2A
S11340908804FD1F00000000000000000000000074
S11340A0A2EB0300704700BF02780B78012A28BFF7
S11340B09A42F5D16DE9044540EA0104CDE902676D
S11340C06FF0000C4FEA447212B380EA010414F05A
S11340D0070F6AD100F0070420F0070004F003057D
S11340E021F007014FEAC505F0E8042314F0040F9A
S11340F0F1E804670CFA05F462EA040266EA0406CD
S11341000AD063EA0403624667EA0407664603E0EA
S1134110F0E80423F1E8046782FA4CF582EA060425
S1134120A4FA8CF46CBB83FA4CF583EA0705A5FA70
S11341308CF595B950E9022351E9026782FA4CF5EE
S113414082EA0604A4FA8CF483FA4CF583EA0705A0
S1134150A5FA8CF52543DBD09CB92DBAB5FA85F4C4
S113416024F0070427FA04F1DDE9026723FA04F3D3
S113417003F0FF0001F0FF01FDE80445A0EB01009E
S1134180704724BAB4FA84F424F0070426FA04F13C
S1134190DDE9026722FA04F202F0FF0001F0FF01F8
S11341A0FDE80445A0EB0100704714F0030F3CD177
S11341B010F0030428D150F8082B51F8083B82FA78
S11341C04CF582EA0305A5FA8CF55DB950F8042C88
S11341D051F8043C82FA4CF582EA0305A5FA8CF501
S11341E0002DE8D02DBAB5FA85F424F0070423FA9B
S11341F004F122FA04F202F0FF0001F0FF01FDE8ED
S11342000445A0EB010070474FEAC40420F003000A
S113421050F8082B21F0030151F8083B0CFA04F480
S113422062EA040263EA0403C9E710F003041AD043
S1134230A1EB040120F00300E40750F8042B06D09E
S11342400FD28B785FFAA2F4E41A06D12BB1CB78A3
S11342505FFAB2F4E41A00D11BB920465DF8104BA2
S1134260704701F1040150F8042BCC0721F003013D
S113427051F8043B48D824D222F07F4482FA4CF50A
S113428094EA1325A5FA8CF50AD165B951F8043BD3
S113429084EA0204B4EB036F0ED150F8042BEBE76D
S11342A04FEA132355E035F07F454DD10878FDE8FA
S11342B00445C0F1000070474FEA126203F0FF03A7
S11342C047E002EA1C4482FA4CF594EA1345A5FA45
S11342D08CF50AD165B951F8043B84EA0204B4EBC5
S11342E0034F0CD150F8042BEBE74FEA134330E0B3
S11342F015EA1C4528D10B884FEA124229E04FEAFF
S1134300124203EA1C4324E002F0FF0482FA4CF553
S113431094EA1365A5FA8CF50AD165B951F8043B02
S113432084EA0204B4EB032F09D150F8042BEBE721
S11343304FEA13630DE015F0FF0F05D10B684FEA48
S1134340122223F07F4304E04FF00000FDE804450F
S1134350704712BA1BBA82FA4CF482EA0304A4FA34
S11343608CF5B5FA85F402FA04F203FA04F34FEA81
S11343701260FDE80445A0EB1360704720F00301D0
S113438010F00300C0F1000051F8043B00F1040CEC
S11343904FEACC0C6FF000021CBF22FA0CF213435C
S11343A04FF0010C4CEA0C2C4CEA0C4CA3EB0C0225
S11343B022EA030212EACC1204BF51F8043B04308F
S11343C0F4D0C2F1000102EA0102B2FA82F2C2F1AF
S11343D01F0200EBD20070472DE9F04FBFB01C461E
S11343E089460892074602F097FE0368159318461B
S11343F0FFF7C4FF0C9416901FB1BB6B002B00F0A9
S1134400F380B9F80C2093B29D040AD4D9F864104F
S113441042F4005321F40051A9F80C30C9F8641097
S11344209BB2180740F1AA80D9F81020002A00F0A6
S1134430A58003F01A030A2B00F0AC8000231A466F
S11344401193239322931493179309932EAB9C46B1
S11344502193129213926446B846089D2B78002B40
S113446000F0C680252B02D1C2E0252B03D015F81D
S1134470013F002BF9D1089BEE1A7EB1229B239AAF
S11344800899216001333244072B666023922293FA
S113449000F393800834099B334409932B78002B51
S11344A000F093800023691C4FF0FF3A6D788DF87B
S11344B067301A460A93069356464B1CA5F1200111
S11344C0582900F2C183DFE811F05602BF03BF038D
S11344D0F602BF03BF03BF03BF03BF03BF03FD0255
S11344E0C602BF03F2014703BF03CA02D102D102CD
S11344F0D102D102D102D102D102D102D102BF0331
S1134500BF03BF03BF03BF03BF03BF03BF03BF0397
S1134510BF036B028D02BF038D02BF03BF03BF0342
S1134520BF03BF02BF03BF036203BF03BF03BF03D5
S1134530BF03BF03A903BF03BF037F03BF03BF03BD
S1134540BF03BF03BF03BF03BF03BF03BF03BF0357
S113455094030B038D028D028D0224030B03BF030E
S1134560BF032B03BF033503F901E0025D02BF0360
S11345700B02BF039500BF03BF0330023846494610
S113458001F05AF9A0B9B9F80C3003F01A030A2B58
S11345907FF454AFB9F90E30002BFFF64FAF384615
S11345A04946089A234601F00BF93FB0BDE8F08F65
S11345B04FF0FF303FB0BDE8F08F4046494621AA96
S11345C003F0F0FF40B92EAC65E7239B23B14046CE
S11345D0494621AA03F0E6FFB9F80C305A06E7D49D
S11345E009983FB0BDE8F08F384602F0A5FA08E715
S11345F0089D53E70893069BB2469E0640F1188334
S11346000C9F073727F0070303F10802D3E900677B
S11346100C9201234FF0000C8DF867C0CDF83CA03C
S1134620BAF1000F03DB069A22F08002069256EAE2
S1134630070240F01983BAF1000F00F01684012B31
S113464000F01A83022B00F04C842EA9F20842EAEF
S11346504772F80806F0070307461646303356EA51
S1134660070201F8013DF1D1069A0E91D00700F13D
S11346700D852EAB5B1A0B930B9A92455346B8BF2C
S11346801346079300231093BCF1000F02D0079B3D
S113469001330793069B13F002030D9302D0079B8B
S11346A002330793069B13F0840640F0DA820A9BD8
S11346B0079AC2EB030ABAF1000F40F3D282BAF1AF
S11346C0100F2399229AB34FC8BF4FF0100B07DC89
S11346D01EE0AAF1100ABAF1100F04F1080417DD64
S11346E001321031072A2391229284E88008F0DDF8
S11346F04046494621AA03F055FF00287FF46CAFD9
S1134700AAF1100ABAF1100F2399229A2EACE7DC11
S113471001320AEB010B072ACDF88CB0229284E80F
S1134720800400F343849DF867C00834BCF1000F93
S11347300FD0229B01330BF1010B0DF16701012214
S1134740072BCDF88CB0229384E8060000F3B783DE
S113475008340D9B73B1229B01330BF1020B1AA990
S11347600222072BCDF88CB0229384E8060000F3D4
S11347709A830834802E00F0EA820F9B0B9AC2EBD6
S1134780030ABAF1000F32DDBAF1100F229A824FF8
S113479022DD10265B4606E0AAF1100ABAF1100FDA
S11347A004F1080417DD01321033072A23932292FF
S11347B027606660F0DD4046494621AA03F0F2FE18
S11347C000287FF409AFAAF1100ABAF1100F239B55
S11347D0229A2EACE7DC9B460132D344072ACDF85B
S11347E08CB0229284E8800400F351830834069B41
S11347F0DB0500F15582229B0B990E9A226001334E
S11348008B44072BCDF88CB06160229300F317839F
S11348100834069B59073AD50A9B079A9D1A002D1E
S113482035DD102D229B5B4F1EDD10265A4604E019
S1134830103D102D04F1080415DD01331032072B4F
S11348402392229327606660F2DD4046494621AAFE
S113485003F0A8FE00287FF4BFAE103D102D239A6C
S1134860229B2EACE9DC93460133AB44072BCDF8F5
S11348708CB022932760656009DD4046494621AA31
S113488003F090FE00287FF4A7AEDDF88CB0099BFE
S1134890079A0A998A42ACBF9B185B180993BBF12B
S11348A0000F40F0D882002322932EACD5E51946A0
S11348B006981D7840F004000690FEE50893069BD8
S11348C013F02003B24600F06D810C9F073727F0E8
S11348D0070303F10802D3E900670C92002399E669
S11348E00C9A089313680E934FF0000B8DF867B081
S11348F0171D002B00F04F86002E0E98C0F2018683
S11349005946324602F00EFF002800F080860E9BC6
S1134910CDF83CB0C31A0B930C9723EAE3730793C7
S1134920CDF840B09DF867C0AEE608931B4B1493D6
S1134930069B8DF867209906B24640F14F810C9F83
S1134940073727F00703D3E9006703F108020C9245
S1134950069BDB0740F1DE8256EA070300F0DA82A9
S1134960069A8DF86950302342F002028DF86830BF
S1134970069202234EE61D781946002A7FF49DAD67
S113498020229AE5069941F0200106911D781946E6
S113499093E500BF709900001C9900005099000035
S11349A00893069B8DF8672043F010030693069B3B
S11349B09906B24640F19C800C9F073727F0070701
S11349C0D7E9002307F108010C9116461F46002A77
S11349D073F10003C0F215849DF867C0CDF83CA0C4
S11349E001231DE60C9F0893073727F007038DF872
S11349F0672003F108020C921A6812925B68139301
S1134A001399129803F012FD0128B34612981399D2
S1134A1040F006840022002304F0D6FB002840F076
S1134A20EE859DF867C0069E994A9A4B03210020A3
S1134A3026F08006472DD8BF1A4607910F90069698
S1134A400E920B9110901FE6069941F00801069111
S1134A501D78194631E51D7819462B222DE5069956
S1134A6041F0800106911D78194626E5A5F1300034
S1134A70002113F8015B01EB810100EB4101A5F179
S1134A8030000928F5D90A9118E50C9908933023C8
S1134A90069A8DF868300B460433782542F00202FA
S1134AA00C937D4B1493B24606920E688DF86950B0
S1134AB000270223AEE5069941F0010106911D7815
S1134AC01946FAE40C9D29680A91084600282946EB
S1134AD001F10401C0F2E3840C911D781946ECE461
S1134AE00893069B8DF867209906B2463FF564AF9C
S1134AF0069BDA0600F19282069B5B0640F18E82E9
S1134B000C99B1F900600431F71732463B460C9119
S1134B105DE7069941F0400106911D781946CCE401
S1134B201D7806996C2D00F0B38441F010010691B4
S1134B301946C2E40893069B8DF867209A0640F153
S1134B4000840C9A09991368CF1708460432394631
S1134B500C92C3E9000180E41D782A2D03F10101C0
S1134B6000F00E86A5F1300009280B464FF0000630
S1134B703FF6A4AC13F8015B06EB860600EB460691
S1134B80A5F130000928F5D946EAE67696E40893BB
S1134B90069B43F010030693069B13F02003B246D2
S1134BA07FF493AE069A12F0100240F04082069B06
S1134BB013F0400300F03B820C9913460A4604327A
S1134BC00E880C92002725E50893344B1493069B1A
S1134BD08DF867209906B2463FF5B1AE069BDA061A
S1134BE040F1C6830C9A1346043316680C930027CD
S1134BF0AEE60C9908930A688DF8902000230122F0
S1134C0004319C4607920C918DF8673024ABCDF8A3
S1134C103CC0CDF840C00B920E933BE50893069B35
S1134C2043F010030693069BB2469E063FF5E8AC9C
S1134C30069BD80640F177830C9A134604321E680B
S1134C400C9201230027E5E408938DF86720002DDA
S1134C503FF4BBAC002301229C4607928DF8905090
S1134C60D2E7DDF88CB061E5012B7FF4EBAC002FCB
S1134C7008BF0A2E80F0EF810DF1F80B30360BF8E7
S1134C80416D2EABCBEB03030B93CDF838B0F3E4BB
S1134C90309900002C990000509900003C990000C4
S1134CA0652D40F38A80129813990022002304F0A2
S1134CB081FA002800F03181229BBA4A2260013334
S1134CC00BF1010B0122072BCDF88CB0229362600B
S1134CD000F3678308341B9B119A934203DB069B02
S1134CE0DF077FF596AD229B1699159A2260013352
S1134CF08B44072BCDF88CB06160229300F3D683EC
S1134D000834119B5D1E002D7FF783AD102D229B6F
S1134D10A54F40F3958110265A4604E00834103D0F
S1134D20102D40F38C8101331032072B23922293F0
S1134D3027606660F2DD4046494621AA03F032FC52
S1134D4000287FF449AC239A229B2EACE7E70A9B08
S1134D50079A9E1A002E7FF710AD102E229A924FBA
S1134D601FDD4FF0100A5B4604E0103E102E04F1E4
S1134D70080415DD01321033072A2393229284E8B4
S1134D808004F2DD4046494621AA03F00BFC0028CA
S1134D907FF422AC103E102E239B229A2EACE9DC29
S1134DA09B460132B344072ACDF88CB02292276087
S1134DB0666000F319820834DFE4119B229D012B05
S1134DC040F3D4810E9B236001350BF101060123CE
S1134DD0072D23962295636000F3E4810834169A24
S1134DE0159B236001351644072D23962295626096
S1134DF000F3E4810834002312981399002204F08C
S1134E00D9F9119B002840F0E0800E9A013B01354E
S1134E1001321E44072D229523962260636000F31D
S1134E20B5810834179A6260013506EB020B1DAB9D
S1134E30072DCDF88CB0229523607FF7E9AC40466E
S1134E40494621AA03F0AEFB00287FF4C5ABDDF888
S1134E508CB02EACDDE44046494621AA03F0A2FB07
S1134E6000283FF420ADFFF7B7BB002B33D1069BDE
S1134E70DA0730D50DF1F80B30230BF8413D2EAB9A
S1134E80CBEB03030B93CDF838B0FFF7F5BB4046EB
S1134E90494621AA03F086FB00287FF49DABDDF888
S1134EA08CB02EACA3E44046494621AA03F07AFB19
S1134EB000287FF491ABDDF88CB02EAC5AE4404668
S1134EC0494621AA03F06EFB00287FF485ABDDF888
S1134ED08CB02EAC3DE42EABCDF82CA00E93FFF796
S1134EE0CBBB14980DF1B80B330906F00F0143EA5C
S1134EF007733A091E461746435C0BF8013D56EA10
S1134F000703F1D15A462EAB9B1ACDF838B00B9358
S1134F10FFF7B2BB0223FFF77DBB1B9D002D40F3BF
S1134F204C82119A10998A421346A8BF0B461D461B
S1134F300E99002D01EB020A0BDD229B2160013347
S1134F40AB44072BCDF88CB06560229300F300834B
S1134F500834109B002DA8BF5B1B002B1D4640F39B
S1134F60AF80102D229B104F40F30F8210265A461B
S1134F7004E00834103D102D40F306820133103252
S1134F80072B2392229327606660F2DD4046494650
S1134F9021AA03F007FB00287FF41EAB239A229B6F
S1134FA02EACE7E76C9900001C9900004046494686
S1134FB021AA03F0F7FA00287FF40EAB9DF867C02E
S1134FC0DDF88CB02EACFFF7B1BB03F1FF3ABAF1B8
S1134FD0000F7FF727AFBAF1100F904FC8BF4FF003
S1134FE0100B07DCF6E00834AAF1100ABAF1100F2E
S1134FF040F3F08001351036072D2396229584E87E
S11350008008F0DD4046494621AA03F0CBFA002887
S11350107FF4E2AA239E229D2EACE5E70C9A166843
S113502013460433F7170C9332463B46CFE40C99EE
S11350300A4604320E680C920027FFF7EBBA934637
S11350400133AB44072BCDF88CB022932760656005
S11350507FF7DEABF3E60DF1B80BCDF81CC030469C
S113506039460A22002304F0FFF83032304639462C
S11350700BF8012D00230A2204F0F6F806460F4629
S113508056EA0703EBD1DDF81CC03BE7302B00F0F8
S113509019820E9B013B1A462EA80E93821A3023C6
S11350A00B9201F8013CFFF7E7BA4046494621AAB2
S11350B003F078FA00287FF48FAADDF88CB02EACC8
S11350C00E9A10991B9B0A441646119A93423EDB92
S11350D0069AD5073BD4119AC6EB0A05D31A9D420A
S11350E0A8BF1D46002D2F460BDD229A26600132F3
S11350F0AB44072ACDF88CB06560229200F35E823F
S11351000834002FACBFDD1B1D46002D7FF781AB9B
S1135110102D229B414F93DD10265A4603E008349C
S1135120103D102D8BDD01331032072B2392229377
S113513027606660F3DD4046494621AA03F032FA4F
S113514000287FF449AA239A229B2EACE8E7229AEE
S113515016981599216001328344072ACDF88CB042
S11351606060229200F30A820834B4E7069BD807F1
S11351703FF528AE0E9B236001350BF10106012398
S1135180072D2396229563607FF74BAE4046494630
S113519021AA03F007FA00287FF41EAA239E229D69
S11351A02EAC3FE64046494621AA03F0FBF900280D
S11351B07FF412AA239E229D2EAC10E64046494657
S11351C021AA03F0EFF900287FF406AA239E229D6A
S11351D02EAC10E601355644072D2396229584E81B
S11351E080047FF71EAED1E74046494621AA03F06A
S11351F0D9F900287FF4F0A9DDF88CB02EACFFF7C4
S1135200BCBA4FF02D0C764267EB47078DF867C0A8
S1135210CDF83CA00123FFF703BA00BF1C9900009E
S113522003F004F9002800F00D8125F02003B6F105
S1135230FF3F0B9300F05882472B04D1002E14BF7C
S1135240B3464FF0010B069B43F480730F93139BFB
S1135250B3F1000A129B0793BBBF534603F1004A04
S113526000232D23662D0D9300F05481462D00F06C
S113527051810B9B079A452B0CBF0BF101075F462D
S113528002201BA98DE8810002911CA81FA903908C
S113529053460491404600F0C7FB672D0E9002D0A0
S11352A0472D40F04781069BDB0740F13A820E9B75
S11352B0DE19079851460022002303F07BFF0028E3
S11352C040F0A3811F9B9E4206D930215A1C1F9295
S11352D019701F9B9E42F9D80E9A9B1A11930B9B2F
S11352E0472B1B9B00F07981652D40F39C81662D33
S11352F0109300F00982119B109A934200F3F781F6
S1135300069BD90700F1178222EAE2730B920D9AE9
S1135310002A40F0698107930F9B06930F929DF832
S113532067C0FFF7B1B9069B0C9A13F0400F134600
S11353303FF484AC16880432002701230C92FFF753
S113534069B9069BDB060BD4069B5F0608D50C9A4D
S1135350136804320C92BDF824201A80FFF77DB83C
S11353600C9A136804320C92099A1A60FFF775B804
S1135370069B0C9A13F0400F134676D0043316881C
S11353800C930027FFF7E4BA93460133AB44072B91
S1135390CDF88CB02293276065603FF786AE083461
S11353A08EE64046494621AA03F0FCF800287FF423
S11353B013A9DDF88CB02EAC8DE4229BB04A226098
S11353C001330BF1010B0122072BCDF88CB0229392
S11353D0626050DC08342DB9119B1BB9069BDE07B3
S11353E07FF517AA229B1699159A226001330BEBBD
S11353F00102072B23926160229300F36881083431
S11354006D42002D6FDD102D9E4FC8BF102605DCA8
S1135410AAE00834103D102D40F3A6800133103269
S1135420072B2392229327606660F2DD40464946AB
S113543021AA03F0B7F800287FF4CEA8239A229B70
S11354402EACE7E7069E904A904B9DF867C00F90FC
S1135450032126F08006472DD8BF1A4607910696E9
S113546010900E920B91FFF70FB9043316680C934A
S11354700027FFF76DBA4046494621AA03F092F887
S113548000287FF4A9A81B9DDDF88CB02EACA2E700
S113549041F0200106915D78591CFFF70EB80A9877
S11354A00C9140420A901946FFF702BA4046494619
S11354B021AA03F077F800287FF48EA8DDF88CB0D9
S11354C02EAC1EE40E9A2EAB9B1A0B93FFF7D4B8A6
S11354D04046494621AA03F065F800287FF47CA8D9
S11354E0239A229B2EAC11986060013302EB000BCF
S11354F0072B0E9ACDF88CB0229322607FF788A9EF
S11355009DE4CDF83CB0FEF739FF0C970B900346B1
S1135510FFF703BA03201BA98DE8010802911CA818
S11355201FA90390079A04915346404600F07CFA61
S11355305F460E900E9BDE190B9B462B7FF4B9AE93
S11355400E9B1B78302B00F0FC801B9F3E44B0E682
S11355504046494621AA03F025F800287FF43CA8D8
S1135560DDF88CB02EACF4E401332A44072B2392EB
S1135570229327606560ABDC0834B4E740464946B3
S113558021AA03F00FF800287FF426A81B9BDDF85E
S11355908CB02EAC9FE5062E334628BF06230B9312
S11355A023EAE373DDF838C00793394B0C97CDF841
S11355B03CC0CDF840C00E93FFF766B8404649465C
S11355C021AA02F0EFFF00287FF406A81B9B119A82
S11355D0DDF88CB0D31A2EAC93E5DF1C22DB9B459F
S11355E020DB1093672586E607930F9B06934FF005
S11355F02D0C00238DF867C00F93FFF748B84FF0C8
S11356002D0C8DF867C0FFF70EBA334664E626EA20
S1135610E6730F900C9710909DF867C007930B9654
S1135620FFF732B8023D013B002B1B93BABF5B422C
S11356302D222B22092B8DF874508DF8752072DDE4
S11356400DF183063046134A82FB0321DA17C2EBBD
S1135650A10202EB8201A3EB410303F13001092A09
S1135660134600F8011DEEDC02463033D9B202F8CD
S1135670011D964240F2A0800DF1760203460DE032
S11356806C9900001C9900003899000034990000BE
S1135690649900006766666613F8011B02F8011B33
S11356A0B342F9D121AB1B1A0DF1760213441DAAA2
S11356B09B1A119A1793012A13440B936DDD0B9BCC
S11356C0002201330B93109223EAE3731FE6404652
S11356D0494621AA02F066FF00287EF47DAF1B9D97
S11356E0239A229B2EAC8BE64FF0060BABE5109B66
S11356F0002BD8BFC3F10206119BC8BF0126F318C3
S11357000B9323EAE37302E6002B30DDBBF1000FB9
S113571025D1069BDE0722D4109A0B9222EAE2736B
S1135720F5E51F9BD8E5303330228DF877308DF8BE
S113573076201EABBBE7109B01330B9323EAE37384
S1135740E5E5079851460022002303F033FD0028C5
S11357507FF4FBAEC7F101071B973E44A9E5109BFC
S11357600BF1010633440B9323EAE373CFE5BBF15A
S1135770000F1BD1069BD80718D401230B93C6E551
S11357800C9D2E6828460430002E5D780C90BEF6E1
S113579094AE4FF0FF36FEF790BE069B13F0010364
S11357A08DD110930B9B23EAE373B0E50BF1020355
S11357B00B9323EAE373AAE50DF1760377E700BFC1
S11357C02DE9F0420C46ADF58D6DB1F80CE0E769BA
S11357D0496EB4F80E9019911AAD4FF480662EF00C
S11357E0020E4FF0000C07976946676A009504950E
S11357F002960596ADF80CE0ADF80E900997CDF839
S113580018C00646FEF7E8FD051E07DB304669466C
S113581001F0FEF8002818BF4FF0FF35BDF80C303A
S11358205B0603D5A38943F04003A38128460DF505
S11358308D6DBDE8F08200BF38B52F4B1B6805465F
S11358400C4613B19A6B002A36D0A28993B218077A
S11358500CD52069A8B113F001021ED0636900229F
S11358605B42A361A260F0B1002038BDD9063BD5EC
S1135870580725D4206942F00803A3819BB200286D
S1135880E9D103F42072B2F5007FE4D02846214622
S113589001F046FCA3892069DDE7990758BF6269D6
S11358A0A2600028E0D1A3891A06DED543F04003A4
S11358B0A3814FF0FF3038BD184601F03DF9C4E72D
S11358C0216B49B104F14003994203D0284601F009
S11358D08BF9A2890023236322F024020023206988
S11358E0636092B22060C6E742F0400209232B6055
S11358F04FF0FF30A28138BD8804FD1F02690B6997
S1135900934200F38F802DE9F04F03F1FF3801F14A
S1135910140700F1140B57F828205BF828304FEADD
S1135920880483B00132B3FBF2F90BEB0403009457
S113593007EB040A0193B9F1000F3BD0002632466D
S1135940BC46DE4634465CF8046BDEF80050B3B265
S1135950360C03FB094406FB09F606EB1446A3B216
S1135960D31AB4B213FA85F3C4EB154404EB2344FD
S11359709BB243EA0443E2454FEA24424EF8043B17
S11359804FEA1644DFD2009B5BF8033093B9019CC5
S1135990231F9B450CD254F8043C4BB9A4F10803D3
S11359A002E01A68043B1AB99B4508F1FF38F8D3A2
S11359B0C0F81080044602F059FA00282EDB09F1E1
S11359C001095D46002357F8041B28688AB29A1A15
S11359D0090C12FA80F2C1EB104303EB224391B29B
S11359E041EA0341BA4545F8041B4FEA2343EAD28E
S11359F05BF828200BEB880382B91A1F93450BD25E
S1135A0053F8042C42B9083B02E01A68043B1AB963
S1135A109B4508F1FF38F8D3C4F81080484603B01A
S1135A20BDE8F08F002070472DE9F04F016C97B06E
S1135A300446239DCDE9022341B1426C4A6001230F
S1135A4093408B6002F02EF800232364DDE90223E7
S1135A50002B994636DB00232B60A54B1A4609EA36
S1135A600303934217D0DDE902670022304639462A
S1135A70002303F09FFB804600282BD0229A0123A9
S1135A801360249B002B00F0CB809A4818600138E7
S1135A9017B0BDE8F08F229A42F20F731360029B95
S1135AA0002B00F0A6809448249B002BF0D0C378F0
S1135AB0002B00F0B78000F10803249A136017B09C
S1135AC0BDE8F08F039A012322F000492B60CDF842
S1135AD00C90C2E715AA14AB8DE80C0020463246A0
S1135AE03B4602F051FA5FEA1955834640F08A803A
S1135AF0DDF85080159D6FF4826345449D42C0F2E9
S1135B0097827E4A521B09FA02F9029A05F212435D
S1135B1022FA03F049EA000003F06EF80123013D84
S1135B20A1F1F8710D930022754B02F027FF6AA3CF
S1135B30D3E9002303F0D6F869A3D3E9002302F0E4
S1135B401FFF064628460F4603F066F866A3D3E90E
S1135B50002303F0C7F802460B463046394602F0EC
S1135B600FFF06460F4603F057FB39460490002208
S1135B703046002303F028FB002840F0A681049B54
S1135B80162B00F29F81049A5E4B03EBC203D3E908
S1135B900001DDE9022303F035FB002800F04E820A
S1135BA0049B013B049300230B93C5EB0805B5F15B
S1135BB0010A00F1A18100230593049B002BC0F28C
S1135BC092819A440A9300230893209B092B2BD893
S1135BD0052B40F37086043B20930025209B023B59
S1135BE0032B00F24E86DFE813F0CC03BE03B202AF
S1135BF06306414B444AC9F31300002814BF1846F6
S1135C00104651E7C7F3130343F07F51CDF83480B6
S1135C103046A5F2FF3541F44011DDF8508082E7AB
S1135C203A4835E7C31C48E70021616420462091C7
S1135C3001F012FF4FF0FF330693209A0C930123D7
S1135C400790219220640993159B002BC0F2D28007
S1135C50049A0E2A00F3CE802A4B03EBC203D3E945
S1135C600089219B002BC0F28F83DDE90267424645
S1135C704B463046394603F05FF903F0CDFA8246CD
S1135C8002F0CAFF42464B4603F02CF80B4602468C
S1135C903946304602F072FE079D0AF130032B703C
S1135CA0069B012B06460F4605F1010562D0002232
S1135CB0174B03F017F80022002306460F4603F0A3
S1135CC079FA002840F08380CDF808B00594DDF817
S1135CD01CB0069C29E000BF61436F63A787D23FD5
