S0190000733665326363786A5F74656D706C6174652E7372656368
S1130000F804FD1FD50D00006D0E0000710E0000F8
S1130010750E0000790E00007D0E00000000000047
S1130020000000000000000000000000810E00003D
S1130030850E000000000000890E00008D0E0000F7
S1130040910E0000950E0000990E00009D0E000018
S1130050A10E0000A50E0000A90E0000AD0E0000C8
S1130060B10E0000B50E0000B90E0000BD0E000078
S1130070C10E0000C50E0000C90E0000CD0E000028
S1130080D10E0000D50E0000D90E0000DD0E0000D8
S1130090E10E0000E50E0000E90E0000ED0E000088
S11300A0F10E0000F50E0000F90E0000FD0E000038
S11300B0010F0000050F0000090F00000D0F0000E4
S11300C0110F0000150F0000190F00001D0F000094
S11300D0210F0000250F0000290F00002D0F000044
S11300E0310F0000350F0000390F00003D0F0000F4
S11300F0410F0000450F0000490F00004D0F0000A4
S1130100510F0000550F0000590F00005D0F000053
S1130110610F0000650F0000690F00006D0F000003
S1130120710F0000750F0000790F00007D0F0000B3
S1130130810F0000850F0000890F00008D0F000063
S1130140910F0000950F0000990F00009D0F000013
S1130150A10F0000A50F0000A90F0000AD0F0000C3
S1130160B10F0000B50F0000B90F0000BD0F000073
S1130170C10F0000C50F0000C90F0000CD0F000023
S1130180D10F0000D50F0000D90F0000DD0F0000D3
S1130190E10F0000E50F0000E90F0000ED0F000083
S11301A0F10F0000F50F0000F90F0000FD0F000033
S11301B00110000005100000091000000D100000DF
S11301C01110000015100000191000001D1000008F
S11301D02110000025100000291000002D1000003F
S11301E03110000035100000391000003D100000EF
S11301F04110000045100000491000004D1000009F
S11302005110000055100000591000005D1000004E
S11302108D100000611000006510000069100000DE
S11302206D100000711000007510000079100000BE
S11302307D1000008110000085100000891000006E
S11302402DE9F00338A393E8F00088B004AA00BFB6
S113025039A382E8F000D3E9008902AA38A3C2E9ED
S11302600089D3E90045CDE90045420000291BD1AE
S1130270082802F13C0102D204A8805C31E0A0F11C
S11302800801042906D202A8104402F1570110F80B
S1130290100C26E00C38042841D20DEB020002F1C8
S11302A0600110F8180C1CE0082802F13D0103D28B
S11302B004A81044407814E0A0F10803042B06D2EB
S11302C002A802F158011044A0F1100208E00C3811
S11302D0042815D202F161010DEB0200A0F118020D
S11302E0507800014AB2002A07D5DFF8E0234CB267
S11302F0131F04F00F04185502E0DFF8D453A85478
S113030048B2012201F01F01DFF8C833400902FAA4
S113031001F143F82010DFF8C02342F8201008B0A0
S1130320BDE8F003704700000F0F0F0F0F0F0F0F02
S11303300F0F0F0F0F0F0F0F0F0F0F0F0F0F0F0FC9
S11303400F0F0F0F0F0F0F0F0146002061B1DFF8E1
S1130350BC33D3F800C00022614500D1AFE1D3F82B
S11303602CC001226145F9D070470000F8B507465A
S11303700C4601210DF1010000F0F8F901210DF105
S1130380020000F0F3F90121684600F0EFF9384665
S1130390FFF7DAFF050018BF002C00F04F81DFF8EB
S11303A07063F619360AF0B2102880F047810121F3
S11303B02970207810B1012807D03FE19DF8011081
S11303C001F01F018DF8011007E09DF8010000F015
S11303D01F0040F020008DF801009DF8010040F05E
S11303E001008DF80100207A20B102280DD00328E5
S11303F018D023E19DF8001001F0F7018DF80010EA
S11304009DF8000000F0EF0009E09DF8000000F006
S1130410F7008DF800009DF8000040F010008DF802
S113042000000BE09DF8000040F008008DF800008B
S11304309DF8001041F010018DF80010617A032935
S113044000F2FC80DFE811F004000F001A0027001E
S11304509DF8010000F0F7008DF801009DF8000000
S113046000F0BF0014E09DF8010040F008008DF892
S113047001009DF8000000F0BF0009E09DF80100B4
S113048000F0F7008DF801009DF8000040F04000F6
S11304908DF800000BE09DF8010040F008008DF895
S11304A001009DF8001041F040018DF80010A17A80
S11304B0042900F2C380DFE801F018030A111D00CB
S11304C09DF8000000F0F80040F0010018E09DF8ED
S11304D0000000F0F80040F0020011E09DF8000078
S11304E000F0F80040F003000AE09DF8000000F07E
S11304F0F80005E09DF8000000F0F80040F004006A
S11305008DF80000E07A10B1012807D096E09DF83C
S1130510011001F0FB018DF8011005E09DF80100C8
S113052040F004008DF80100607B01289DF8000074
S11305300CBF40F0800000F07F008DF80000207BAD
S113054001289DF800000CBF40F0200000F0DF00FF
S11305508DF80000787840F0800078703846616843
S113056000F06EF89DF8010038709DF80210797063
S11305709DF800003871A17B0129B9890CBF4FF4A3
S113058000400020C1F30E010843B881206910B374
S1130590B98A41F00401B982B98A41F00801B982EB
S11305A0B98A41F40061B982027812B1012A40D0BB
S11305B044E0BB8A4FF6FF610B40BB82407838763B
S11305C0216988787876B98A41F00101B982B88ABC
S11305D040F00200B8826069F0B14078012803D18C
S11305E0787840F01000787060690178012903D1AF
S11305F0787840F00800787060698178012903D127
S1130600787840F0040078706069C178012903D1DA
S1130610B88A40F40070B882A06938B14168A96012
S113062002686A608168E960C0682861207F00F020
S113063085B8B98A41F48071B982BFE70420F2BD5C
S113064038B504460D4600F0B3F80CB1042D01D2C0
S1130650042032BD00F042B860B111B1012905D0C7
S113066008E0417841F0010100F078B8417841F0A8
S11306700201F9E70420704702460020062915D834
S1130680DFE801F00406080A0C0E100000F069B857
S113069000F04FB800F03EB800F040B800F042B8A7
S11306A0507901E0908A800A00F001007047000050
S11306B008B90420704700F039B8008970472C202D
S11306C010FB02F2981810307047000018ED00E09B
S11306D000E400E080E200E000E100E0DFF8740004
S11306E0DFF8741000680A68012300F0030003FABD
S11306F000F0B2FBF0F0B0FBF5F0A289411E61F30B
S11307000E02A281002032BD000000000000FD1F87
S11307100080FCBF5079C0F3C00070475079C0F32B
S1130720800070475079C0F3400070470181002079
S113073070475079C0F300107047207E012807D11C
S11307400021F0B2FFF77CFD0121F0B2FFF778FD44
S11307500020F2BD1C0001405800FD1F4170002024
S113076070475079C0F3401070470000002918BF4B
S113077000F0D2B8704730B4002513E050F8042BD1
S1130780D30744BFA9F101039A18091F042942F8A9
S1130790045BFAD213468C0744BF15809B1CC9071F
S11307A048BF1D7050F8041B0029E7D130BC7047C6
S11307B04A490868400900F00700052818D8DFE80E
S11307C000F0030305171214454812E0CA6B4448AD
S11307D002F03F02521C4243886BC0F30310401CDA
S11307E0B2FBF0F005E03F4803E04FF4004000E0C6
S11307F00020096901F00701062917D8DFE801F094
S11308001704060B0D121400400810E0364AA0FB32
S1130810022148080BE0800809E0334AA0FB0221CA
S1130820880804E0C00802E0000900E000202F4925
S1130830086070472E482F492F4A304B01600260F0
S11308400020186001222E48016841F47001016003
S11308502C48026001688A07FCD500211F48016109
S113086001224261802181618122C261832101626E
S1130870002282625C210163026842F0020202608B
S113088041688A07FCD5002141630122826331213A
S1130890C163026842F0100202604168CA06FCD5D6
S11308A0016841F0400101600168426802F0E00221
S11308B001F0E0018A42F7D11348144902680A4062
S11308C08A4209D01249134B8B600268120C4A60A9
S11308D00022006808608A60704700000000014040
S11308E000093D00A0860100ABAAAAAA5800FD1F7A
S11308F0001C014051E5CC1AAE1A33E50810014042
S113090088ED00E01400004000010040FF031F00D8
S113091004E0024054E5CC1A002200F001B80000C3
S1130920401810F0030308D0C91A1FD3DB0748BFCF
S113093000F8012D28BF20F8022D130030B414460E
S11309401546103928BF20E93C00FAD8490728BFCA
S113095020E90C0048BF40F8042D890028BF20F886
S1130960022D48BF00F8012D30BC7047C91818BFCC
S113097000F8012DCB0728BF00F8012D70470000B7
S113098070B50546484E0AE004213046FFF774FE70
S11309900128F9D121463046FFF78AFE6D1C2C78D8
S11309A0002CF1D104213046FFF766FE0128F9D16D
S11309B00D213046FFF77CFE04213046FFF75CFE34
S11309C00128F9D10A213046FFF772FE00F002F83F
S11309D0002070BDF0B599B00025002635A7324C33
S11309E003212046FFF748FE0128F9D12046FFF7EE
S11309F064FE0DF8060038461DF8061000F06CF889
S1130A00761C0DEB06006D1C10F8011C0A29E7D1B9
S1130A1024A000F061F800200DF806004FEA0D0153
S1130A202AA000F059F8284619B0F0BD78B589B06D
S1130A30202101A8FFF79AFE03216846FFF796FEDE
S1130A400021ADF80010002208218DF802108DF865
S1130A5004204FF4E13102910392ADF81020059285
S1130A6001A9114C114D124E2046FFF77FFC286856
S1130A7020F0407040F000702860002101203071A7
S1130A802046FFF7E9FD286820F4400040F4000008
S1130A902860012131702046FFF7DEFD0AB070BDE9
S1130AA00000000000000000008303401CF6064024
S1130AB00002DE427265636569766564206368617D
S1130AC0723A20272563270D0A000000646F6E65C3
S1130AD03A202225732200000EB4C0B5024603A8B2
S1130AE000210190009101AB0121044878440C30AD
S1130AF000F012F806BC5DF810FB00BF41030000D3
S1130B0070B505461C000846164604D016F8011BAD
S1130B10A847641EFAD170BD2DE9FC4383B0814619
S1130B20884617461D4607E001233A464146484693
S1130B30FFF7E6FF80467F1C3878E0B12528F3D123
S1130B407978BF1C252912D0582958D0632915D08B
S1130B50642918BF692917D06F2950D0702953D040
S1130B60732957D0752918BF782948D0E4E740463F
S1130B70C8478046E0E705B0BDE8F083286850F830
S1130B80041B2860C9B2F2E7286850F8046B286097
S1130B90002E03D52D214046C847804664216F2985
S1130BA008BF082205D041F02000782814BF0A228B
S1130BB010220B246429304602D1002E48BF404243
S1130BC0B0FBF2FC02FB1C003030641EC3B23A2BB3
S1130BD0A4BFA1F1510630180DF804005FEA0C001F
S1130BE001D0002CECDC0DEB0406D4F10B044046E0
S1130BF0BFD016F8011BC847641EFAD1B9E72868AC
S1130C0050F8046B2860CAE7286850F8046B286021
S1130C107821C4E7286850F8046B2860304600F057
S1130C2009F804004046A4D016F8011BC847641E06
S1130C30FAD19EE700F10103810704D010F8011BEB
S1130C40820781B1FAD10268A2F10131914311F016
S1130C50803104BF50F8042FF6E709BAB1FA81F1E4
S1130C6000EBD100401CC01A7047000010B588B0DA
S1130C7020216846FFF77AFD00214FF4E1328DF818
S1130C80001001920291ADF80C1004916946194CC0
S1130C902068FFF76BFB18490020087017491848B3
S1130CA0026822F0C00242F0400202600120087093
S1130CB000212068FFF7D0FC08B010BD38B5044609
S1130CC0C0B20A280B4D09D128680421FFF7D4FCCF
S1130CD00128F9D128680D21FFF7EAFC28680421CE
S1130CE0FFF7CAFC0128F9D12868A1B2FFF7E0FC9C
S1130CF0204632BD5C00FD1F7CA0DE420801DE42BE
S1130D001CF6064030B5016884684218416802EB5D
S1130D105103C90703D54C4401E0491C05D19A424B
S1130D200AD012F9011B12F8015B002904F8015BD7
S1130D30F3D4491EF7D5F2E70C3030BD80B5FFF788
S1130D4095FFFFF773FE00BF04A0FFF7C5FE02A0E6
S1130D50FFF716FEFEE700004154000057656C6380
S1130D606F6D650D0A00000010B50749794418310C
S1130D70064C7C44163404E00A68081D1144884774
S1130D800146A142F8D110BD2C000000480000002B
S1130D904EF68851CEF20001086840F470000860F5
S1130DA0BFF34F8FBFF36F8F4FF00070E1EE100A67
S1130DB070470000C3F9FFFF50000000A800FD1FAA
S1130DC00000000041FFFFFFC8020000AA0000006D
S1130DD00000FD1FDFF81000016841F4700101609C
S1130DE0024880470248004788ED00E035080000CB
S1130DF0610E000000F00DF8002801D0FFF7B4FFE9
S1130E00AFF300800020AFF30080FFF797FF00F0FE
S1130E1002F80120704700F001B800000746384688
S1130E2000F002F8FBE7000080B5AFF30080024A4F
S1130E3011001820ABBEFBE72600020038B50446BB
S1130E400D46284600F006F8A84218BF00242046A4
S1130E5032BD00000149FFF731BF00BF6000FD1F34
S1130E60AFF30080FFF794FFFFF7C4FFFFF7FEBF67
S1130E70FFF7FEBFFFF7FEBFFFF7FEBFFFF7FEBFA2
S1130E80FFF7FEBFFFF7FEBFFFF7FEBFFFF7FEBF92
S1130E90FFF7FEBFFFF7FEBFFFF7FEBFFFF7FEBF82
S1130EA0FFF7FEBFFFF7FEBFFFF7FEBFFFF7FEBF72
S11310900F00800340008003400080034000800371
S11310A040E3000E830340008303400083034000B9
S11310B0830340E3001AC2EB0B00800340020401E7
S11310C001A800FD1FF800FD1FA800FD1FA800FDDA
S11310D01FFC0003A800FD1FFC0007A400FD1F90D7
S10810E000FD1FE0000B
S9030E618D
